:020000040001F9
:10B00000A02F0020F5B001000FB1010011B1010027
:10B010000000000000000000000000000000000030
:10B0200000000000000000000000000013B101005B
:10B03000000000000000000015B1010017B1010080
:10B0400019B1010019B101004DB4010019B101009D
:10B0500019B101000000000065B2010019B1010042
:10B0600019B1010019B1010019B1010019B10100B4
:10B0700019B1010019B1010019B1010019B10100A4
:10B0800019B10100B1B3010019B1010019B10100FA
:10B09000D1B3010019B10100D9B3010019B1010008
:10B0A00019B1010019B1010000000000000000000A
:10B0B0000000000000000000000000000000000090
:10B0C0000348854600F09EF80048004711E501005E
:10B0D000A02F0020401E00BF00BF00BF00BF00BF68
:10B0E00000BF00BF00BF00BF00BF00BF00BFF1D165
:10B0F000704700000321094802680A4302600848BB
:10B1000002680A4302600748804707480047FEE795
:10B11000FEE7FEE7FEE7FEE7FEE70000240500404D
:10B1200054050040F9B30100C1B0010030B50B4631
:10B13000014600202022012409E00D46D5409D4211
:10B1400005D31D469540491B254695404019154697
:10B15000521E002DF1DC30BD70B5002425460028BC
:10B1600001DA01244042002901DA01254942FFF7B2
:10B17000DDFFAC4200D04042002C00D0494270BDFF
:10B1800003460B439B0703D009E008C9121F08C000
:10B19000042AFAD203E00B780370401C491C521EAB
:10B1A000F9D27047D2B201E00270401C491EFBD2B6
:10B1B00070470022F6E710B513460A4604461946C2
:10B1C000FFF7F0FF204610BD421C0178401C00290B
:10B1D000FBD1801A704730B504460020034600E0DA
:10B1E0005B1C934203D2E05CCD5C401BF8D030BDC9
:10B1F0000321001D401E037812021A43491EF9D58F
:10B2000010467047064C0125064E05E0E36807CC62
:10B210002B430C3C98471034B442F7D3FFF754FF4C
:10B2200068FE010088FE010030B58C180278401CD1
:10B2300013071B0F01D10378401C120906D10278B5
:10B24000401C03E005780D70401C491C5B1EF9D1C1
:10B2500001E00B70491C521EFBD1A142E6D3002035
:10B2600030BD0000F8B50024FF2501350126274632
:10B270000094284603F0CEFB002808D034484068EC
:10B28000304204D0334800212818344301602D1D7A
:10B2900076007F1CADB2042FEBD3FF207D3003F08E
:10B2A000B9FB002807D02C48002101604007044367
:10B2B0002A48006900902A4F200712D00126002555
:10B2C00026420AD02748AA00111808690969C00453
:10B2D000C00E8903BA58890F904776006D1C042D63
:10B2E000EED3002C30DA00241D4E002130194030FE
:10B2F0004156491C25D00778BD06AD0E284601F001
:10B30000DBFC80003658002E1BD0BF090121A9406C
:10B31000154AA80080180068009A8003800F114227
:10B3200002D0022802D00CE003280AD1032F05D155
:10B3300002280AD00221284603F05CFB3946284641
:10B34000B047641C042CCFD3F8BD0321F3E7000001
:10B3500000630040006000407C6100400005005038
:10B360001C27002000650040000700508307FF22D3
:10B37000DB0E9A408907090E994000280BDA000776
:10B38000000F0838830808489B001818C3699343C6
:10B390000B43C3617047830804489B001B1818685F
:10B3A000904308431860704700ED00E000E400E0BF
:10B3B00010B506490020086048608860C8600349ED
:10B3C00040390860486004F001FB10BD40110140A5
:10B3D00010B504F091FA10BD10B506484068002879
:10B3E00005D08047002801D000F0E0F910BD02F040
:10B3F000FBFE10BD5820002010B502F03FFF0028D2
:10B4000005D00E490C484860C8130D4988610D48A5
:10B41000018CC9B201290ED1818C09070BD1018D94
:10B420000906090F042906D1808D0006000F02D1FC
:10B4300005490120886010BDDFFF07C000050040FE
:10B44000006C0040C00F00F00006004010B504F092
:10B4500023FB10BD30B47446641E2578641CAB42D7
:10B4600000D21D46635D5B00E31830BC184702E064
:10B4700008C8121F08C1002AFAD17047704700207F
:10B4800001E001C1121F002AFBD17047F7B584B05B
:10B490000025168807461580406B1446002813D0F7
:10B4A00003780598032E51D30221017021881122BF
:10B4B000491C89B2218042542188491C89B22180CB
:10B4C00043542088401C2080386B00281DD005463E
:10B4D0002088059902461232B24237D811220A5406
:10B4E00020881022401C80B220800A542088401CF2
:10B4F00020800F202A5C2388401ECA54228840B234
:10B50000521C22800028F5DA0025384620300290AF
:10B51000807B002806D033462246059902F0FAFEC9
:10B52000050014D10298407B002806D032462146FF
:10B53000059800F0D1FE050009D1B878002823D085
:10B54000059886462088001DB04202D90C2007B01D
:10B55000F0BD684679DF0028F9D1218803207246C2
:10B56000505420881921401C80B22080115420881A
:10B570007146401C80B2208041186846008804F063
:10B580001FFB218840182080F878002817D02188D8
:10B5900003230A46FB56C91C0598B142D6D802219E
:10B5A000815421880122491C89B22180425421887A
:10B5B000491C89B2218043542088401C208078682F
:10B5C000002817D021880023C3560A46C91C0598B5
:10B5D000B142BBD80221815421880A22491C89B278
:10B5E000218042542188491C89B2218043542088FB
:10B5F000401C2080388900280AD0009438460196E3
:10B60000062202210830059B04F05DFB05009ED157
:10B61000388A00280AD00094384601960722032170
:10B620001030059B04F04FFB050090D1388B0028AB
:10B630000AD0009438460196152214211830059B33
:10B6400004F041FB050082D1386A002806D0334659
:10B650002246059901F0DCFC0500D8D1786A002863
:10B6600006D033462246059903F01AF80500CED1DC
:10B670000298007B002807D03346224638460599B9
:10B6800003F0B5FE0500C2D13878002807D0334654
:10B6900022463846059903F037F80500B7D1284609
:10B6A00055E710B501220221002001F031F90028F0
:10B6B00001D0072812D107220221012001F028F928
:10B6C000002801D0072809D100210A22084601F0EC
:10B6D0001FF9002801D0072800D1002010BD00006C
:10B6E000044842680121C9050B46934383600A4020
:10B6F000C26070470005005070B50024064D06E09A
:10B700006968E000085C012103F084F8641C287873
:10B710008442F5D3002070BD24200020F8B51546E2
:10B720000C460646052A01D20720F8BD03F048F969
:10B73000002803D103F01AF90028F6D1104900209F
:10B740004E600C70C8608D6008610E4D0DE0E00029
:10B7500069688019009181786A46517000780A4AB8
:10B76000694603F0A7F80028DFD12046641EE4B242
:10B770000028ECD1054A0021024800F04FF8F8BD3E
:10B780002420002060FE010021E101004DD50100D0
:10B79000BFF34F8F04490348C860BFF34F8F00BF0A
:10B7A000FDE700000400FA0500ED00E00EB5002101
:10B7B000029000916A4601910148FFF7E9FF0000FD
:10B7C00001400000014B1B681847000020260020A4
:10B7D00038B50C46A2680C235A43064B09789D588D
:10B7E000054A126A00920246204608302369A8479B
:10B7F00038BD0000102700200020002010B50649A9
:10B8000014230A785A435118091DFFF7E1FF042059
:10B8100003F0D2FE10BD000044260020094B9B68B7
:10B82000002B07D0002A07D0002805D00068037C31
:10B83000002B03D0082070470720704741744261F5
:10B840000020704738200020FFB59007002581B008
:10B8500014460E46002832D11B4F002C31D003F085
:10B86000C5FC0498786103203870334618212246BD
:10B8700000204B43BC601834C10089180D704D7016
:10B880008E704C601C19401C0328F5DBFD607D7038
:10B8900001240E48BD702405046003211420FFF725
:10B8A00065FD0B4804600B4C0198A060032111203A
:10B8B000FFF75CFD60683861002005B0F0BD07202F
:10B8C000FBE7BD60FBE700003820002080E200E0DD
:10B8D00000E100E000150140FEB50D461B4917468A
:10B8E0008968044600292AD0002C28D0052D01D2D1
:10B8F0000720FEBD6069002821D0607C012820D08F
:10B90000002604F0A3F9C00010490190896840188E
:10B91000694604F0C5F9002815D0012101700C49D1
:10B92000446049680830E2C00849019889684118B4
:10B9300068460078487004F021F80020FEBD082019
:10B94000FEBD2E46DDE70420FEBD000038200020AD
:10B9500000150140F8B5134D0446A96800291CD014
:10B96000002C1AD06069002817D00026267404F035
:10B970006DF9C700A8686946381804F091F90028E5
:10B980000DD0022101704460A8683918684600781B
:10B99000487003F0F3FF3046F8BD0820F8BD0420DE
:10B9A000F8BD000038200020F0B50546007D0024D9
:10B9B00093B00E4600280DD0012001466846103194
:10B9C00003940173717B4173817BF92001406846C8
:10B9D000891C81731C2104A8FFF7EBFB6946087CD6
:10B9E00002210843694608742A7DEF21002A02D00B
:10B9F0001022104300E008406A4610740594079432
:10BA00000894287D002800D003A8099001270A94F3
:10BA100010469771304A82800094B27B0270F27BAC
:10BA200042708078F9221040F722801C1040EF21EC
:10BA300008404108490068468170317B0172142139
:10BA40000BA8FFF7B6FB01A80B9068460C90878601
:10BA5000C486078702A80F90A888AB1D0BAA04A96B
:10BA6000A2DF002835D1B068002830D06846877141
:10BA70001A4981800094317C01700020014668469B
:10BA800041708078F9210840F721801C0840EF219F
:10BA90000840410849006846817011A8B16800F06B
:10BAA000DEFD064614210BA8FFF783FB01A80B90CF
:10BAB00068460C908686C486068711A80F902A4691
:10BAC000E8880E320BA9A3DF002802D100E0EC8148
:10BAD000002013B0F0BD0000192A00000829000062
:10BAE00010B50D480178491CC9B20170642901D90B
:10BAF00000210170C9B2094800F04AFA002809D0B3
:10BB0000082807D00649884204D00649884201D057
:10BB1000FFF74CFE10BD0000001F0020BC220020DB
:10BB20000430000001340000F0B50C4693B01F2132
:10BB30006A461180072600279180002809D0C17825
:10BB400049070DD502A9FFF7A1FC002809D102ADD4
:10BB500001E000251780002C0ED0E078002802D0EC
:10BB6000304613B0F0BD01AA0AA92046FFF78EFCAB
:10BB70000028F6D10AAA02E06846002287806846BB
:10BB80008088C3B268460088C1B2284672DFE8E701
:10BB900070B50D4604991646040042D0002E40D0E0
:10BBA000424800224271C36001612422314640486C
:10BBB000FFF7E6FA00F0D4F83D4934310846103872
:10BBC00001602031816038215C38FFF7F2FA384893
:10BBD000217838380170A1788170E178C17061787E
:10BBE00041706269216942610161E268A168C260D5
:10BBF00081600146E369A269CB618A61616A0029BB
:10BC000019D00146AC310246B83241628A60636A9B
:10BC10001B880B80616A436A898899800021436A86
:10BC200006E00E2070BD666AB668765C5654491C04
:10BC30009E888E42F7D8A16A00291CD01C4AAC32DB
:10BC400011460C398A608162A36A9B888B80A16A45
:10BC5000836A098819800021836A04E0A66AB668AD
:10BC6000765C5654491C9E888E42F7D82C210A5D7A
:10BC70000F4918390A73216A002909D00B49143178
:10BC80000162226A52884A80216A026A0988118008
:10BC90006168002904D00549891D416061684160DF
:10BCA000034829463838FFF73FFF70BD681F002062
:10BCB0001024002010B502881C4C102A17D0002137
:10BCC000112A1AD0192A11D1807900280ED1607951
:10BCD00001281ED0022822D0032822D0042805D112
:10BCE0002171E2680846002A00D0904710BD017D0E
:10BCF0000129FBD18088208110BD61708088218955
:10BD00008842F9D1012005E021690029F4D0884753
:10BD100010BD022000F04CF80028F5D110BD032022
:10BD2000F8E7032020710420F4E70000681F0020DA
:10BD300010B5022801D003280ED1084C2078002825
:10BD40000AD000202070607900F032F8002803D07B
:10BD50002169002900D0884710BD0000681F00201D
:10BD600010B507210148FFF724FA10BD801F0020FD
:10BD700010B50D480078012814D10C4C60780028CB
:10BD800010D16079002802D074DF00280BD1012087
:10BD90006070607900F00CF8002803D02169002958
:10BDA00000D08847002010BD10240020681F00200C
:10BDB000F0B5754C87B06071002606A8069602F0B3
:10BDC000DFFF0127082806D000286FD10698002839
:10BDD00002D02770D4E00696FFF7C2FF6B4D68785B
:10BDE000002802D06079012805D0A87800280AD060
:10BDF0006079022807D1E168002903D0E7700820A4
:10BE0000884700E0E6706079012808D1687800284A
:10BE100009D05D48193002F057FF002803D060793F
:10BE2000022802D00CE002206071A878002805D01A
:10BE30005548193002F048FF002801D103206071F5
:10BE4000287B002804D16079032801D10420607187
:10BE5000287E002804D16079042801D166712671FA
:10BE6000E16800290AD06079032801D0042805D1AF
:10BE70002878002802D06078002818D0A6701821F1
:10BE80006846FFF796F968460670019606720396B3
:10BE9000607901280FD0022816D03C4E2436374650
:10BEA0005C3F03281CD004285ED13BE069E0A7700A
:10BEB00007208847E3E73448183001906846077048
:10BEC00046820682277152E02F481830019068465A
:10BED000077029894182A98801820220207146E0E9
:10BEE000A88A69464882288A08822848243003F0B4
:10BEF00059FF002805D02878002802D06078002853
:10BF000001D003202FE00220694608720420039626
:10BF1000F8701E4800213838FFF706FE002830D19F
:10BF2000052020E0A88B69460882288C48821748A3
:10BF3000243003F037FF002805D02878002802D0ED
:10BF40006078002801D004200DE0022069460872C4
:10BF500004200396F8700D4800213838FFF7E4FDFF
:10BF600000280ED1062020716079002803D0684691
:10BF700073DF002805D1E168002901D020798847C6
:10BF8000002007B0F0BD0000681F00201024002032
:10BF900073B586B004002FD06A46217C127F002042
:10BFA000914227D0002501266846009506804580ED
:10BFB00007A80190E188608A6A46A4DF002819D1A9
:10BFC0006846007F2074608A0D49884216D0207D23
:10BFD000002813D00295039504950595E1886846DD
:10BFE0000181867241888181049001980590608A60
:10BFF00002A9A6DF08B070BD0E20FBE70820F9E714
:10C00000FFFF000038B50D4604001AD0002D18D0EF
:10C01000286820600020C043608228792075FF20B6
:10C02000207401216846817007490180221D6946FC
:10C030000120A0DF002803D129462046FFF7B4FCE9
:10C0400038BD0E2038BD00000F18000038B500289C
:10C0500024D0002922D00A88102A1AD0112A1AD0F6
:10C06000502A1BD1027D002A18D0CA884389891D15
:10C070009A4213D10A8B022A10D10268002A0DD0ED
:10C08000CB7E8C7E19022143C907C90F07D000213E
:10C0900006E0898801E00021C943418238BD0121C1
:10C0A0006B4619706946904738BD000070B505466B
:10C0B00001461C220E48FFF763F80E4C002626703E
:10C0C0002968002906D00822201DFFF759F8201DF5
:10C0D0007ADF02E00748001D7BDF002807D1401E01
:10C0E00060806670044A00210448FFF797FB70BD2A
:10C0F000FC240020881F0020E9FB0100F8FD01005E
:10C10000F8B5214C028800271E4DE689102A15D06B
:10C110001E49112A21D0122A2DD0502A1CD1C288A2
:10C12000801DB24218D1028B022A15D1C27E837EB5
:10C1300010021843C007C00F0CD112E0818869803B
:10C1400001461048082216310C30FFF719F86F70BD
:10C15000002E01D100F0A4FFF8BD0020C04368808C
:10C160006F700868FFF7F6FB0028F5D0A169002979
:10C17000F2D08847F8BD811D024808220C30FEF736
:10C18000FFFFE7E7881F0020FC240020F8FD0100E6
:10C1900030B5054687B0086828600020C043E883B2
:10C1A00088890C4628840121684681761C490183D0
:10C1B0002A1D06A90120A0DF00282ED121462846ED
:10C1C00001F040F8002828D12146284600F0C6FF9B
:10C1D000002822D1206A002805D02146284601F0F7
:10C1E000B7F8002819D1E0690590217E68460174EE
:10C1F000A17BC17020690290606903900322E11D58
:10C200006846FEF7BDFFE98A68464182A9888180B9
:10C2100028466946243000F04BF907B030BD0000D5
:10C220001618000030B50446C08B134A8BB09042FC
:10C230001FD006AA204601F057F869460546088037
:10C2400000200190029003900490E2888A800122ED
:10C250008A71088106A803910490E08B01A9A6DFEA
:10C26000002804D169460988A94200D00C200BB0EF
:10C2700030BD0820FBE70000FFFF000038B5044692
:10C280000D46243000F07EF92888102818D0112897
:10C2900018D0502819D1E9886289AD1D20469142F5
:10C2A00013D1298B022910D10268002A0DD0E97E12
:10C2B000AB7E09021943C907C90F07D0002106E068
:10C2C000A88801E00020C043E08338BD01216B460F
:10C2D00019706946904738BD7CB5054608880C46FC
:10C2E0000930904201D90C207CBD684671DF0028DE
:10C2F000FAD121880820685420881B21401C80B274
:10C3000020802954208800A9401C80B22080401938
:10C3100006220131FEF734FF20886946801D80B275
:10C3200020800978002900D0012129542088401C50
:10C33000208000207CBD00007FB5044601216846B6
:10C3400081714A4981804A4A01A90120A0DF002861
:10C350007ED1228825463C35002A09D044482B4608
:10C36000801C00904348616800F0AEFC00287BD13F
:10C370002289002A0AD03E482B460A3000903D48C8
:10C38000E168401F00F0A0FC00286DD1228A002A3D
:10C390000AD037482B461230009036486169001F9A
:10C3A00000F092FC00285FD1228B002A0AD030488E
:10C3B0002B461A3000902F48E169801E00F084FC63
:10C3C000002851D1228C002A0AD029482B4622303D
:10C3D00000902848616AC01E00F076FC002843D116
:10C3E000228D002A0AD022482B462A30009021486C
:10C3F000E16A401E00F068FC002835D1216B00295D
:10C400000ED002A803F042FA19482B4632300090B1
:10C410001848082202A9801F00F056FC002823D1EA
:10C42000606B00280BD012492B463A3100910279FB
:10C4300001681048401C00F047FC002814D1A16B93
:10C44000002910D002A802F07FFC0948423000E029
:10C450000AE0009007482B46072202A9273000F087
:10C4600033FC002800D1002004B070BD0A18000081
:10C470009C1F0020292A000010B5044601F08EF907
:10C4800021460A48FFF7FAFE084821461838FFF708
:10C49000DDFD2046FFF734FE204600F071F920460E
:10C4A00002F0E0FA2046FFF705FC10BDD422002080
:10C4B000F0B5044600208FB0C043A081002626209E
:10C4C00006550A7C2277087C0D46002806D0E968CC
:10C4D000002903D020460E30FEF752FEA888608067
:10C4E000A8682062E8782070688AA0846869A062E1
:10C4F0000120014608A81031089601702978417082
:10C500008178F9273940891C81701C2101A8FEF728
:10C5100050FE684601792820014368460171029661
:10C5200008A8049605960122079606908271144980
:10C530006846818400200146684600960170A9780B
:10C5400041708178F7203940891C01401020014357
:10C5500011436846817014210AA8FEF72AFE09A833
:10C560000A9068460B9006861321468681860E96B1
:10C570006088231D0AAA01A9A2DF0FB0F0BD000048
:10C58000552A000010B50C88024600232032112CD9
:10C5900013D005DC012C28D0102C0DD189880EE099
:10C5A000512C0ED0532C07D1C9888088814203D1E9
:10C5B0009079032800D1937110BD0021C943818176
:10C5C000F9E70A1D891D0B78022BF5D19279042A0F
:10C5D000F2D0062AF0D0052AEED04A8883889A4203
:10C5E000EAD1891C02F08AFA10BD91790229FBD1A7
:10C5F00002F058FE10BDF0B5054604462035A87976
:10C600008FB0012802D008200FB0F0BD68464174F9
:10C610000227077408AA04A9204600F03FFF01463C
:10C620006846818600260096019602960396A188A8
:10C630000180877086800DA8029008A80390A089C9
:10C640006946A6DF0028DFD1AE71DDE770B504468C
:10C650000D460846FEF7B8FD2080656070BD0A787B
:10C6600002704978417002207047000000B585B023
:10C67000002348221749082002F0EEFF002801D0CD
:10C68000FFF794F86A460121002002F0CDFF002850
:10C6900001D0FFF78BF8104802F03AFE002801D0D5
:10C6A000FFF784F8684602F0B5FF002801D0FFF7D5
:10C6B0007DF80A4802F0A4FF002801D0FFF776F8C1
:10C6C000074802F0E1FF002801D0FFF76FF805B03E
:10C6D00000BD000074220020001E002079C401006B
:10C6E0007DF801001CB5044681786A460C4802F0CA
:10C6F0005BFB002812D160781C21484309491C23A8
:10C7000040181A46694602F009FC064806494430BA
:10C71000807A80000A582146684690471CBD000078
:10C72000F81F0020DC25002018FE01007CB5134E08
:10C7300000250C463060002918D06946002000F022
:10C74000B5F8002819D101A9012000F0AFF80028A0
:10C7500013D1684601790020002901D0022004E0AD
:10C7600069460978002900D00B20207070680028E5
:10C7700002D1FEF796FF054628467CBD5C1F0020CF
:10C7800010B51C4C0188606810290DD011290AD100
:10C79000401E606007D1FEF784FF002803D02168A7
:10C7A000002900D0884710BD00281ED10021012299
:10C7B000084600F0ADF8002801D0072811D1072263
:10C7C0000221012000F0A4F8002801D0072808D198
:10C7D00004220221002000F09BF8002805D0072841
:10C7E00003D02168002900D088476068401C606041
:10C7F00010BD00005C1F002010B5032000F006FAF9
:10C80000002801D0062800D1002010BDF8B5074649
:10C810000024234802E0641C042C1AD2A20082588F
:10C82000BA42F8D1042C14D21D481E4E0C380029EF
:10C8300029D001290ED002290BD1600020188019BF
:10C840004578002D05D018480169002901D02846F7
:10C850008847F8BD61006118755C8E1971780029F0
:10C860000CD011490A224968806851430E4A521C73
:10C87000FFF732F8002801D10B4847700A48B17819
:10C8800014300155DDE78068FFF764F80648610061
:10C89000611814308919005D8D78A842D1D0F8BD97
:10C8A000C8FD0100AC230020441F002004280CD246
:10C8B000074A1269074B80001B5C01209840904397
:10C8C00000D001200870002070470020FAE7000027
:10C8D00000050050C8FD010010B5042806D0072847
:10C8E0000ED00A2801D102F053FE10BD07481321D3
:10C8F000808876DF06E00028F7D0FEF757FF10BDEE
:10C90000FFF736FA0828F6D110BD0000001F0020FE
:10C9100070B50023042811D2440004190D4D012ADA
:10C9200002D101290DD0002246008019094E80193C
:10C9300000290CD0012906D0022906D00723184669
:10C9400070BD0D30C2B22A55F9E74270F7E7827028
:10C95000F5E70000AC23002010B5054A0146127A25
:10C960000020D20702D0084600F054F810BD0000A5
:10C97000441F002070B50E46204905464E608D606C
:10C9800000200A61A9071ED5002401221146204675
:10C99000FFF7BEFF641C042C02D20028F5D012E081
:10C9A000002810D1720804211548FEF7B7FE0028B0
:10C9B00009D1FEF7A1FE002805D11148114A002136
:10C9C0001438FEF72BFFE90706D00F220E49520557
:10C9D0008A600023CB608A6100280DD108480B4A89
:10C9E00000211C38FEF71AFF002805D10448084A28
:10C9F00001211838FEF712FF70BD0000441F00200F
:10CA0000D8FD010049CC01000005005069E3010098
:10CA1000E1B60100FEB57A4D0722EB6892059A4314
:10CA200002936B6800939C0006461B1900200121AD
:10CA3000019349050746734C3300FEF70BFD180DB3
:10CA40001515374755677C887F8891DE9E9E9E9E90
:10CA50009EC8CED1D8DEDE140F21029A490591433B
:10CA6000A160E7602F70FEBDA260E76060680F22E2
:10CA700052055040800209D5A160E760022E02D124
:10CA8000E120C0000AE07D20400107E0E160A760EE
:10CA9000022E01D1C82001E0FF2091302E706421C8
:10CAA000FEF744FB0099414300223FE0A260E760AB
:10CAB00060680F2252055040800204D5A160E760F3
:10CAC00019204001EAE7E160A760E3E7A260E760C0
:10CAD00060680F2252055040800202D5A160E760D5
:10CAE000D1E7E160A760D7E7A260E76060680F2246
:10CAF00052055040800202D5A160E76001E0E1608C
:10CB0000A7602E700098410000220FE0A260E7604D
:10CB100060680F2252055040800202D5A160E76094
:10CB200001E0E160A7602E7000990022364800689D
:10CB3000FEF7D2FEFEBDA260E7601BE06168012047
:10CB4000800502468A43A2600140E16010E060680F
:10CB5000012189050A468243A2600840E060E3E7BC
:10CB60006068012189050A468243A2600840E060AE
:10CB70000199C9E7E160A7602DE023484068FEF70E
:10CB8000E9FE11218A1B01D0002807D00F22E96895
:10CB900052051140A160E760EF60FEBD0121C905AB
:10CBA000E960012A0CD91046C82148436421FEF7E8
:10CBB000BDFA69680022414313484068FEF78CFEC5
:10CBC0000F22E96852051140E160A760FEBD0F2108
:10CBD0004905A160E7602E70FEBD07229205AAE715
:10CBE0000D214905A160E76001218905C2E7032104
:10CBF000C905A160E7608910BCE70F214905B9E7C5
:10CC0000441F002000050050BCFD0100F0B50021CC
:10CC10000B4C0C4D03273F048A00A2589200561972
:10CC2000326801238B40034000D00323BA431B0426
:10CC300013433360491C0429EED30020F0BD0000EB
:10CC4000C8FD01000007005010B500780221FFF771
:10CC5000DDFD10BD0022D243830004490428CA50E0
:10CC600002D3081820300277704700001C270020EC
:10CC7000F0B50025ED43002A02D00023042601E090
:10CC8000042308260B4C04E09F00E7597F1C04D0C6
:10CC90005B1CB342F8D32846F0BD26185DB220369F
:10CCA00035709E00A151002AF5D1E1182031087796
:10CCB000F1E700001C27002002490918202008562F
:10CCC000704700001C270020FFB58FB01E46154698
:10CCD0000F0002D10020FEF769FD002D02D10020D7
:10CCE000FEF764FD1C216846FEF763FA684601788A
:10CCF00002200143684601700024019403940494C7
:10CD00000594012108A80694817068460F99018452
:10CD100007943178017771784177807FF921084055
:10CD2000F721801C0840EF2108404108490068466F
:10CD30008177142109A8FEF73CFA08A8099007A8F2
:10CD40000A9068468585C485058604480D9709AA1A
:10CD500069460088189BA2DF13B0F0BD9C1F00201D
:10CD6000F8B53E481422017851430C18E0680C21B4
:10CD700048433A492769CC314018058941890091D7
:10CD8000241D466802F09EF801463846FEF7CEF9AB
:10CD9000002932D000200099A2884D436188AE1945
:10CDA0008918CD1900222E4900280A6109D002F005
:10CDB00089F86188884222D0B54202D1A088002833
:10CDC0001DD0A06802281AD002F07CF8A188CA19E8
:10CDD00001461046FEF7AAF9214C8808E06002F0EF
:10CDE00071F801462846FEF7A1F9002911D000206C
:10CDF000B5422FD000280ED02CE00120CBE702F066
:10CE000061F801463846FEF791F91549486103205B
:10CE100021E00120ECE7ADB2B7B202F053F80146D1
:10CE20003846FEF783F9064602F04CF801462846DC
:10CE3000FEF77CF9864201D1781B09E002F042F846
:10CE4000064602F03FF801462846FEF76FF9701AD1
:10CE500080082061022002F0AFFBF8BD44260020CC
:10CE60000020002010B5074814220178514308180B
:10CE70000079042802D000F059F810BD012002F01A
:10CE80009BFB10BD4426002010B50B4814220178EE
:10CE900051430818094AC18811620079012806D057
:10CEA000032801D0042801D1FFF75AFF10BD01204B
:10CEB00002F082FB10BD000044260020002000206C
:10CEC00014225043054A002180180171C1800122BB
:10CED0000161C26041610181704700004426002069
:10CEE000F8B5104C069E65780A2D19D027787D1963
:10CEF0000A2D00D30A3D14277D432D1928716A613C
:10CF000003C92961E860EB802E816078401C607065
:10CF100005480078002801D1FFF7B6FF0020F8BDD2
:10CF20000420F8BD442600200020002010B50D4C40
:10CF300014212078484301190020091DFEF748FC00
:10CF40002078FFF7BDFF6078401E60702078401C9D
:10CF5000C0B220700A2801D100202070002002F009
:10CF60002BFB10BD44260020F8B52348C1680029DA
:10CF70003ED00E6821494C680769C078E11B0D025C
:10CF80002D0AED1C002814D101201D4A0004506018
:10CF90001B4A403A50601B49400008601A4908602B
:10CFA0001A49012008602F20FEF794F81249012049
:10CFB000C870B54200D23546E81900020F4B000A8E
:10CFC000403318600D4A5168001B091B0902090A09
:10CFD0000002000AC91C814209D9506818602F203C
:10CFE000FEF778F801200749400480390860F8BD51
:10CFF00002F0FCF8F8BD00003820002000150140C8
:10D000004013014080E200E000E100E00010014038
:10D01000F8B50646108814468446801D0D46984291
:10D0200001D90C20F8BD32880720062AFAD3192727
:10D03000FF01184BBA4201D99A42F3D171880629EF
:10D04000F0D3B94201D99942ECD19A4203D0994226
:10D0500001D08A42E6D80521604629542088122151
:10D06000401C80B2208029542088401C80B220803F
:10D070004119308802F0A4FD2188401880B2208038
:10D080004119708802F09CFD218840182080002002
:10D09000F8BD0000FFFF000010B5FEF787FB10BDD4
:10D0A000F8B5164801F0DCF8144D00260C3D144C80
:10D0B000002807D0616900291CD001206A46107041
:10D0C000684616E02878002805D06169002911D04B
:10D0D000684606700DE0687800280DD0A168094800
:10D0E00000220068FEF7F8FB002803D0A1690029A0
:10D0F00000D088472E70F8BD6168F0E7941F0020CB
:10D10000FC240020F8FD010070B5094B04469E7A0E
:10D11000082000250E4207D00648844202D0188914
:10D12000A04202D10020156070BD052070BD000036
:10D1300014260020FFFF00000C214843064910B5CB
:10D14000012240188272911E0181FF21C1720721C4
:10D15000FEF72FF810BD00001426002070B590B027
:10D160000E4605461C216846FEF723F86A461078ED
:10D170000221084310700024019403940494059440
:10D18000012008AA0694907015486A4610840794F6
:10D19000B07A10775477907FF9210840F721801CEE
:10D1A0000840EF210840400840009077142109A86A
:10D1B000FDF7FFFFB0890EA902F007FD08A909914C
:10D1C00007A90A916A469085D48510860EA80D900D
:10D1D0002B46A8880E3309AA6946A2DF10B070BD9D
:10D1E0005C2A00007FB5684600F000F969461148E6
:10D1F000FFF718F8104C002808D0082806D0A042E5
:10D2000004D00E49884201D0FEF7D0FA0C4DA87820
:10D2100000280ED0074801212430FFF7ECF9002840
:10D2200005D0082803D0A04203D0FEF7BFFA0020A3
:10D23000A8707FBDD422002004300000013400001B
:10D24000001F002070B500240546601C98B0000740
:10D25000000F08AA10300D94107508795075907D54
:10D26000F9263040801C90751C2106A8FDF7A1FF0F
:10D270006A46107E1021084310760DA807940B9083
:10D2800009940A94012108AA0C94917615486A46DB
:10D2900010870020059410755075907DF72230405E
:10D2A000801C1040EF22104008436A4690751421FC
:10D2B0006846FDF77EFF0EA8009005A801900FAA12
:10D2C00014A9284600F010F86A46108114205481F1
:10D2D00090810FA80490A888AB1D06A9A2DF18B002
:10D2E00070BD00005B2A0000F7B500980026008C96
:10D2F000012714460D46C00711D0287800280ED00B
:10D30000696861700A0AA2700A0CE270090E217144
:10D310000126611D288902F058FC401DC7B2009803
:10D32000008C800710D5687800280DD002200643B5
:10D33000E119688902F049FCC019C7B2E119A8894E
:10D3400002F043FCC019C7B226703846FEBD00008B
:10D3500070B590B00D4606461C216846FDF729FFC2
:10D360006846017802200143684601700024019458
:10D37000039404940594012108A8069481701A4925
:10D380006846018425200794415D684601770020A6
:10D39000014668464177827FF9200240F720921CBF
:10D3A0000240EF200240510849006846817714216D
:10D3B0000AA8FDF7FEFE296A0120002902D009789B
:10D3C00008AA117108A90A9107A90B916946088654
:10D3D0004C86888609A80E903346B08816330AAA70
:10D3E000A2DF10B070BD00005D2A0000F8B5012773
:10D3F000054607702649274801F0ECFFFF21173149
:10D40000484386B27D20C0007D217043C900FDF7EE
:10D410008DFE204C1C3C6189401880B21E49FDF7EE
:10D4200085FE22698018206161816860701A80021F
:10D430003146FDF791FE2189401828811449204684
:10D440006F701031243001F0C5FF0621484386B2C9
:10D450007D213046C9004843FDF768FEA189401888
:10D46000FF2180B26931FDF761FEE2888018E0801B
:10D47000A1816881701A80023146FDF76DFE014678
:10D4800020890918A981B90240182081F8BD00003F
:10D490004C2300201C1F00203408000010B5034658
:10D4A0001020107008785070487890704C780320E5
:10D4B000012C0CD10978042909D1002104E05C1861
:10D4C000A47B1454401C491C1C7F8C42F7DC10BD0B
:10D4D00010B5134C207900071FD46069401C6061AF
:10D4E000E068002801D0042004E000F0EBFE0028F2
:10D4F00003D0022002F0B8F910BD2069002809D03D
:10D500006068C10701D00320F4E70121084360608F
:10D510000020EFE7FFF7A6FC10BD02F099F910BD5F
:10D520000020002010B5084841680A0708D48A077F
:10D5300002D5012211434160022002F095F910BD8D
:10D5400002F086F910BD000000200020F8B500268A
:10D550000124154D23E06968F0004718387821460A
:10D560002A698140114218D08A432A6101F0F4F9F6
:10D570003A782146EB68914019400346934099421E
:10D580000BD17978012901D0012100E000217B68CD
:10D590004140002B01D010469847761CF6B22878FF
:10D5A0008642D8D3F8BD000024200020FEB50E46E8
:10D5B000044681786A46234801F0F6FB002827D10B
:10D5C00060780C21204F4843C019807A400620D44F
:10D5D000022E1ED0012E1ED01C4DA0781C214843C7
:10D5E00019490023FC3941181C226846A847002825
:10D5F00013D0022E0CD020780C21484312490C3154
:10D600004018807A124980000A582146684690479F
:10D61000FEBD104DE1E7104DDFE7022EF8D0607837
:10D620000C214843C019817ABF2211408172607871
:10D630001C2148430449383941181C231A466846BE
:10D64000A847D8E7F81F002014260020D5F70100CE
:10D6500008FE01005DF1010081F0010070B5054692
:10D66000114A124800241C2363431B189B7EFF2B86
:10D6700004D0641C072CF6D3104670BD0A78022A29
:10D6800009D01C2262431018FD2282760722103036
:10D69000FDF776FD04E01C2161430818FE21817628
:10D6A0002C700022E8E700004380000018250020CD
:10D6B000F7B505250F4F06460024002E0AD01C2082
:10D6C0006043C019072231461030FDF784FD002861
:10D6D00007D00AE01C206043C019018B02988142E8
:10D6E00003D101980025046002E0641C072CE4D3F8
:10D6F0002846FEBD182500207CB5054681B26A4645
:10D70000074801F051FB040008D15821684601F098
:10D7100075FB040002D1284601F0E2FA20467CBDE8
:10D72000F81F002010B5100001D0FEF73FF80020D0
:10D7300010BD00001FB56946087301F0C9FB002841
:10D7400001D0FEF733F803A800F020FA002801D03A
:10D75000FEF72CF801A805210130FDF72AFD6946E6
:10D76000487901221043E1210840DF210C300840B4
:10D7700069464871072088711020C87105480090DB
:10D780000A71054800F014FB002801D0FEF70EF8DE
:10D790001FBD000025D70100011F0020F0B5054680
:10D7A00093B000200290FF24EC480E9400780028EB
:10D7B00049D0EB4F3868002845D001A800F0D8F9CF
:10D7C000002801D0FDF7F2FF281D05902A206946A8
:10D7D0000883FF20002688710E710396E04C28888C
:10D7E0000C3C10280ED0A88803AA0221FFF78CFC5D
:10D7F000002807D103980C2141430919CA7A6946C8
:10D800008A7148712888132217287CD00FDC1028D1
:10D810001BD0112853D0132876D0142813D1039885
:10D820000C2148430019C07AFF2871D08DE0CD4902
:10D8300018286BD01C286AD0522804D1B87A8000EE
:10D84000095801A8884713B0F0BDC74F03AA0121AA
:10D850003846FFF759FC0028F5D103990C204843BE
:10D8600002220019827211236A4613745171A98829
:10D8700001810722A91DFDF783FC687DC10707D040
:10D880004108B6480830405CFF2808D00E9006E0FA
:10D890003A460EA9A81DFFF70BFF00280ED10399E9
:10D8A0000C22514309190E98C8728A7A08231A4328
:10D8B0008A726946887101A8FEF714FF39E103985E
:10D8C0000C2148430119887AFD2210408872010713
:10D8D00006D5C0090DD0002101A8FFF767FE08E0BA
:10D8E00068468079FF2804D001F0FAF9FF206946E4
:10D8F000887103980C225043102100198172122064
:10D900006946087415E17FE030E001E0D5E00EE102
:10D91000EA890EA90020FFF7CBFE00280ED103985C
:10D920000C22504300190E99C172837A08221343C6
:10D9300083726846817101A8FEF7D4FE03980C211A
:10D9400048430019C07AFF2806D003981C21484399
:10D95000834944394018029003981C214843834965
:10D960004218A8880023029982DF6CE76846027497
:10D97000039B0C2058430119887A042210438872B3
:10D98000C87AFF2830D01620694608741C2043430B
:10D9900073481421283818180830FDF70AFC03983A
:10D9A0000C2148430019817A402211438172039966
:10D9B0000C2200204A430A901219D27A1C235A439F
:10D9C0006A4B0C90D2180B921C2251431A46C43257
:10D9D00089180791089009903A1DA88807AB002183
:10D9E0007FDF0028C1D1A4E00EA8FFF737FE002892
:10D9F00001D00646DBE769460E98887103990C2230
:10DA000051430919C872D2E7787A40084000787209
:10DA1000039A0C209446424311198B7AFB20034051
:10DA20008B7214206F463874A879002804D0C87A05
:10DA3000FFF762FEAE797CE0E879400779D5B879E6
:10DA4000FF2876D008273B438B72EB7A9B0708D5DB
:10DA50001C2503466B43454D5B199D7E6D086D008B
:10DA60009D76CB7AFF2B64D0A25C022A10D01C22B8
:10DA700050433E4D072240191030FDF781FB6846A8
:10DA800080791C2148434019817EFD2211400EE01F
:10DA900061461C225143324A443A89184A8A1C2161
:10DAA0004843324940180283817E49084900817603
:10DAB000012101A8FFF77AFD3BE0A8790209012ABC
:10DAC00023D10007000F01281FD103980C224243E5
:10DAD0001219927A120718D51C2148432049283977
:10DAE000401814210830FDF764FB162069460874BD
:10DAF00003980C2148430119887A602210438872E8
:10DB0000787A0221084378720FE003980C22504380
:10DB10000019827A80231A43827215206A46107493
:10DB2000B87A8000095801A88847002601E06846B5
:10DB30000274324604A901A8FDF744FE6846007C41
:10DB4000122800D07FE603980C2141430919897AF5
:10DB50000129F7D0FFF7F0FA75E60000E81F002072
:10DB60002026002028FE0100FFFF000018250020CD
:10DB7000002806D0FF21017041708170C170002023
:10DB800070470148704700000E800000F0B585B076
:10DB9000040036D029480025056045728572284664
:10DBA000FFF7CAFA25481C212838FDF702FB00269A
:10DBB000FF27304601F094F821488755761C072E40
:10DBC000F7D35821684681800721C1801D481C4930
:10DBD00000900831684601F0F5F900280FD1184E81
:10DBE0000120083E3070207800280CD069468888D3
:10DBF000C988484381B23046103001F0FFF805B0C3
:10DC0000F0BD1148FBE7114F00240D48A1B202AA54
:10DC1000083001F0C9F8002809D11C206043C01960
:10DC200000231C2202A901F079F9002801D03570E7
:10DC3000E5E7641C072CE8D3E1E70000202600207C
:10DC4000F01F002051DC01000E800000182500208C
:10DC5000FFB554488FB00068189F1E4600284FD06B
:10DC6000582F4DD86846FFF783FF002801D0FDF7F5
:10DC70009DFD0024684604700471254605970696AC
:10DC8000A9B20DAA484801F08FF8002806D1082251
:10DC90000DA90F98FDF79FFA002819D06D1C072DCC
:10DCA000EED3684680780790FF2829D01098202569
:10DCB000032810D03D481C21301AFDF737FA012700
:10DCC00007282DD204A80290119800281AD021E02C
:10DCD00068468570E5E7582F03D0402069460871F3
:10DCE00001E06846057169460879032108436946E1
:10DCF000087104A8029001A96846119AFDF762FD17
:10DD000013B0F0BD07993846884027491039496853
:10DD10000842F5D0079801F05DFF6846057138E0CC
:10DD200020481C214438301AFDF700FA00280BD097
:10DD30001C4D1C21283D701BFDF7F8F900281AD056
:10DD4000402069460871DBE704A802906846057127
:10DD5000447014480A940C300B9050380790684671
:10DD600080781C21484311494018089007A8069064
:10DD7000182005900DE03021684601714470C7708D
:10DD800008480C38807A800703D428461C21FDF708
:10DD900010FA109869460228087901D00221A5E7F7
:10DDA0003843A5E720260020F81F00201825002072
:10DDB00070B5064618480D46007800280ED0174961
:10DDC000002E0ED0002D0CD02868002809D0144C4D
:10DDD0002168002907D011480A3870BD0F48801FFC
:10DDE00070BD084670BD20600522691D201DFDF72D
:10DDF000C7F92879A072207A022140084000084320
:10DE0000FB2210402072E0790123184308431040A0
:10DE1000E0710020307070BDE81F00200E8000000F
:10DE20002026002010B50E4900234A788C78A242A3
:10DE300012D0521CD2B24A70022A00D14B704A78DA
:10DE4000074B920018339A580260086910180002B4
:10DE5000000A0861012010BD0360002010BD000011
:10DE60003820002010B5002803D0112802D0FDF77B
:10DE7000C5FC10BD0248082241681143416010BD35
:10DE80000020002010B51C4C217820464068012954
:10DE900006D0022929D0032912D1000717D513E093
:10DEA000000711D415481422017851430818C1887D
:10DEB000A28B891A0904090CC18002D001F08CFCE4
:10DEC00010BDFFF733F810BD00F0DEFB10BD606938
:10DED000401C606100F0F6F9002803D0207801F0C2
:10DEE0006BFB10BDFEF7BEFF10BD607804498000DB
:10DEF0000858804710BD0000002000204426002064
:10DF00004CFE010010B528DFFFF7ACFF10BD10B5C7
:10DF100029DFFFF7A7FF10BD0EB511206946087273
:10DF20000A220FA102A87CDF002801D0FDF73EFCE9
:10DF30000E4878DF002801D0FDF738FC0021FF20D3
:10DF4000913000916A460191108043005380918086
:10DF5000D08068467ADF002801D0FDF727FC0EBD8F
:10DF6000424C455F5465737465720000850400007F
:10DF7000002070470020704700207047F8B5064623
:10DF800040781C2104464C4324490C22504361181C
:10DF9000224A00254B681C328018AE462F469C460C
:10DFA000002B0CD0827A1346D20908D05A0606D428
:10DFB0000D461A4A614689B2175908358E46174CE4
:10DFC00000891C343B4672462946A9DF0B2819D02C
:10DFD000002800D01248012F13D170780C2148433B
:10DFE000001900890F4AA7DF00280AD00E4988428D
:10DFF00012D0082810D0891C88420DD011280BD0CF
:10E000000020F8BD70780C214843012300190089D5
:10E0100072462946A9DFE0E70148F8BDF82500204F
:10E0200041800000FFFF00000230000070B50C4688
:10E03000014660781C22084D50434019382300F0F7
:10E040006DFF002807D161781C22514349194A68A5
:10E05000521C00D14A6070BDF8250020F3B587B08E
:10E060000D4614206946888268780C2103274843AE
:10E07000224E3B468019008905AA6946AADF00287E
:10E0800038D168781C214843741A001969468A8A75
:10E090000830FDF7A0F80028687807D01C21484315
:10E0A0000119496800290DD0154E0CE00C2141439F
:10E0B0008919897A89071DD41C2148430019FDF765
:10E0C00078F817E00F4E27506846828A68781C213E
:10E0D000484300194260687848430019694608308F
:10E0E000FDF74EF868781C214843011938231C229B
:10E0F0000798B047002009B0F0BD000014260020AA
:10E100005DF1010081F0010010B5FFF737FF10BD90
:10E1100010B5FFF78BFF10BD10B5FFF79FFF10BDC7
:10E12000F8B50746104E0125BD403068FDF712FCDA
:10E1300000280DD10D4C2069284207D1384600F047
:10E140000BFC0028E06804D0284303E0A8432061CA
:10E15000F8BDA843E0602069002228432061A1683F
:10E160003068FDF7B9FBF8BD60FE010024200020F7
:10E1700070B51B4C207900072ED41A481422017860
:10E1800051430D182E6900F09DFE0146E8882A894A
:10E19000761E80188019FCF7C9FF21690025002927
:10E1A00009D06169814206D1E560606801210843B8
:10E1B000606000200AE000F085F8002802D002200C
:10E1C000E56003E02069002803D0032001F04CFB48
:10E1D00070BDFEF747FE70BD01F03AFB70BD000058
:10E1E0000020002044260020F8B51C4C2078002890
:10E1F00033D02069002807D00026E068002805D029
:10E200000025002E04D011E00126F6E70125F8E7ED
:10E21000684652DF052804D0002804D0FDF7C6FA6E
:10E2200004E0012602E0216900988847002D10D102
:10E23000608869460880A06861DF052804D000284E
:10E2400004D0FDF7B3FA04E0012502E0E168A0681C
:10E250008847002EDCD0002DD3D0F8BD58200020F8
:10E26000418805480288914204D34088814201D800
:10E2700001207047002070478C1F00201048018C3F
:10E28000C9B2012917D1818C090714D1018D090662
:10E290000A0F03D1828D1206120F0ED0090F012929
:10E2A00003D1828D1206120F07D0032903D1808D6E
:10E2B0000006000F01D000207047012070470000C9
:10E2C000C00F00F070B50E481422017851430C18AD
:10E2D000256900F0F7FD0146E08822896D1E80184F
:10E2E0004019FCF723FF07494A69824206D382425C
:10E2F00002D10869002801D0002070BD012070BD46
:10E300004426002000200020800701D00020704714
:10E310000120704730B51588EC1C9C4201D90C20B7
:10E3200030BD02244C5513881C255B1C9BB2138006
:10E33000CD5413885B1C9BB21380012807D00228A0
:10E3400007D0032807D0042807D0072030BD0020BD
:10E3500004E0012002E0CC5401E00320C8541088FE
:10E36000401C1080002030BD10B50448017AC90758
:10E3700002D00078FEF74EFB10BD0000441F0020C5
:10E38000F8B52C49C8680A690C780F7989688646FF
:10E39000944600913EE00099E20055182A7836E054
:10E3A000182353436968521CC918AB78D2B2934200
:10E3B00000D100220B78022B02D0032B27D123E0BF
:10E3C0004E680346014603E0B14204D00B46C969DA
:10E3D00000291CD0F8E7002919D08B4208D1C06968
:10E3E000002805D1144F0126BE600026B44601273F
:10E3F0000E68C969D961002909D00B689B190B60A7
:10E4000005E00174C06900E000210028F9D16978B5
:10E410009142C5D12146641EE4B20029BBD1054911
:10E4200062460A61C8600F71704501D00120F8BDD5
:10E430000020F8BD3820002000100140F8B5044647
:10E4400031480026C168009107784EE02E48F90057
:10E4500080680D1843E0002C02D02046E4691FE0DC
:10E460002878182141436A68401CC0B251182870AE
:10E47000AA78904200D12E700A784868012A30D1DB
:10E48000027C002A2DD18A684260CA6882600A69CB
:10E49000C260496981611C490979002900D0466040
:10E4A000194943680A699C46991A0902174B090AD7
:10E4B000994202D28268891807E06146511A09021E
:10E4C0008268090A8A4202D9511A016000E0066096
:10E4D0004660012186600174C66101F057FA002C84
:10E4E000B9D1287869788842BAD138467F1EFFB200
:10E4F0000028ABD10448C1680098814201D00120B6
:10E50000F8BD0020F8BD000038200020FFFF7F008C
:10E51000002398B0514A05211846FDF795F90028C7
:10E5200001D0FDF743F94E4A01214E48FDF776F937
:10E53000002801D0FDF73AF94A484B4A0121001D55
:10E54000FDF76CF9002801D0FDF730F9474A48493A
:10E550000320FEF70FFA002801D0FDF727F901A9E3
:10E560000020FEF7E3F8002801D0FDF71FF9684608
:10E570000079022869D0002168460170FEF776F81C
:10E5800068460078FFF7D6F8FFF7C6FC382101A8E7
:10E59000FCF70FFE022168460171012585710621F5
:10E5A000C171032484823348069024210FA8FCF70C
:10E5B00000FE10A80572282000251390B4200095B5
:10E5C00014902D4B0FAA294601A8FDF7E1FA002867
:10E5D00001D0FDF7EBF800F051FF00F0A1FE1C2187
:10E5E0006846FCF7E6FD0520C00301900F200004FB
:10E5F0000290009568460473204841896846C181AD
:10E6000005741F4805901F4806906846FDF74EFDAB
:10E61000002801D0FDF7CAF8124C0121002209049C
:10E620002068FDF759F9002801D0FDF7BFF8012156
:10E63000C90300226068FDF74FF9002801D0FDF7FB
:10E64000B5F80320FDF7B4FB02E0012194E748DFB1
:10E650000028FCD0FDF7AAF8F9E70000AC20002064
:10E66000E1BA0100B4FD0100E5D10100D9C8010003
:10E67000CD0C0000361F002043EA0100D422002008
:10E68000DDEA010099D0010010B504480822416874
:10E6900091434160007800F08FFF10BD0020002002
:10E6A00070B5144682880E4605462088111D411813
:10E6B000921C994201D8FE2A01D90C2070BD521C2F
:10E6C00032542088FF21401C80B2208031542088A1
:10E6D000401C80B220808119288801F071FA2188BD
:10E6E000401880B22080AA88002A09D0A968002991
:10E6F00008D08019FCF744FD2088A98840182080A4
:10E70000002070BD072070BDF8B50F460178144693
:10E710000546012902D16878002806D02088821C8D
:10E720009A422DD8012902D006E00720F8BD697869
:10E730004118891C994223D8181A801E86B268464F
:10E7400006802188B81C081869467DDF0028EDD1B5
:10E750002878022805D169460988B14201D80921E3
:10E760000AE00821012805D16878B04202D86A463B
:10E77000108001E06846068068460088FE2801D9BE
:10E780000C20F8BD2288401CB8542088401C80B260
:10E790002080395420886946401C20800988401810
:10E7A00020800020F8BD0020704700207047002026
:10E7B000704700008207D30EFF229A408907090E96
:10E7C00010B5994000280BDA03071B0F083B9C0883
:10E7D0000C4BA400E318DC6994430C43DC6107E0B4
:10E7E0008408094BA400E418236893430B43236077
:10E7F000C106C90E01208840044908600449086028
:10E8000010BD000000ED00E000E400E080E200E068
:10E8100000E100E0F3B581B00F46019800F07CFA0A
:10E82000012400281E4E019817D0FEF745FA8019E2
:10E830002030007F8009032802D0012806D007E09D
:10E840001848006901998C40204201D1022100E062
:10E850000321019800F0CEF8FEBD00F069FA00280F
:10E86000FAD00198FEF728FA05468100C81D0E4A25
:10E87000F93089180A6980B222430A610B494018AD
:10E8800000210160002FE7D00198FEF715FA800003
:10E8900030580028E0D00648AC404460FEBD00007F
:10E8A0001C2700200005005000650040006000406B
:10E8B00000630040FEB5044623480E46001920219F
:10E8C00041560027C8171346401C01D0082738E0DE
:10E8D000F27819462046FEF7CBF90546401C2FD0AA
:10E8E000B078002807D01948A1000918086802224A
:10E8F0009043086007E000217378204600910A46A3
:10E90000019100F065F8F078002810D01048AA00B6
:10E910001018317802690F4B1A400261E206D20CDE
:10E920008907890B0A4301690A43026109E0064825
:10E93000327840192030017F92011143017700E0C5
:10E9400004273846FEBD00001C27002000070050A9
:10E9500000650040FFE0FCFF03490969C140C807AA
:10E96000C00F00D0012070470005005070B5124D57
:10E970002879002801D0082070BD0F4900204039B7
:10E98000421E0B182033401CC0B21A702028F8D346
:10E9900000242046FEF75EF9641CE4B2082CF8D38C
:10E9A00003210620FFF706FF01200449C007486045
:10E9B00001202871002070BD5C270020006300400A
:10E9C00002480079002800D0012070475C27002011
:10E9D00030B552000A439900039C0A432102049D6A
:10E9E0000A4329040A43024980004018026030BDEE
:10E9F00000070050820006481018026803231B0419
:10EA00009A430260026809040A43026070470000EA
:10EA100000070050034940180068012800D000207A
:10EA200070470000006000404058002800D00120DE
:10EA300070470322120280184068084000D001206D
:10EA4000704710B5002809D0032806D10220FDF731
:10EA500083FF002801D0FCF7A9FE10BD00F098FD4F
:10EA600010BD00007FB5044600881B4D102823D040
:10EA700005DC02281FD10021A88867DF17E01128D4
:10EA800023D0512817D1A179002914D0A07A0428C5
:10EA900003D0062801D005280DD1022919D0012064
:10EAA00069460870FF2083308880A888A8DF002886
:10EAB00001D0FCF77BFE7FBD0720FDF74DFF00284E
:10EAC00001D0FCF773FEA08801E00020C043A880BD
:10EAD0007FBD0220E4E70000001F002010B5007891
:10EAE000002807D104483B21808876DF002801D028
:10EAF000FCF75CFE10BD0000001F0020F0B5714A5D
:10EB00000D46044607CA93B008AB07C30222694604
:10EB100000200A74088348830790888201278F7534
:10EB20000D908A86C8860FA80E902189A0890DAA0B
:10EB3000A5DF002803D0A16A002900D088476846D5
:10EB4000808F26468007C00F203600282DD0B07950
:10EB5000002801D0FF20813069468882A08904A95D
:10EB6000A8DF002803D0A16A002900D088476846A2
:10EB7000808A002872D10220B07169464870297ECF
:10EB800028461A300906090E0AD0057808A90D7022
:10EB9000012D10D0022D19D0032D09D0042D15D030
:10EBA00008A80178684601707CE0FF208230D3E736
:10EBB000407808720AE0401C0890FCF719FB01023B
:10EBC0000898090AC0780006014309916846057053
:10EBD000012D44D0022D52D0032D07D0042D61D138
:10EBE0002078C0075ED0684647705BE02078C00799
:10EBF00058D008A8017A0020227F1DE023189B7BB3
:10EC00008B4218D108A8027A027768464770002123
:10EC10000D918786C1860FA80E9008A80173027413
:10EC2000226A002A0CD00BA92046904769464870FA
:10EC3000012805D036E0401C8242DFDC03200AE0D8
:10EC4000A18CA0890DAAA4DF00282BD0A16A0029DD
:10EC500000D0884704206946487023E02FE02078E0
:10EC600080071FD56846477008A8077309980C905D
:10EC7000226A002A16D00BA920469047EBE720789D
:10EC800040070FD5B771022508A80573226A002A2C
:10EC900008D00BA92046904769464870C0B20128A9
:10ECA00000D0B57122462E3269462046FEF7F6FBAB
:10ECB0007073B079022802D1204600F0F3FA13B045
:10ECC000F0BD0000FCFD01000021425C002A01D0E3
:10ECD00001207047491C0629F7D300207047000027
:10ECE00070B505461C200B49684344182046113076
:10ECF0000621FCF75EFA20461021FCF75AFAFF21A4
:10ED000021740020A176C0432083284600F062FFD2
:10ED100070BD000018250020044908182021415624
:10ED2000042901DB01207047002070471C270020C8
:10ED30000449081820214156042901D201207047B6
:10ED4000002070471C27002070B50D00044602D13A
:10ED50000020FCF72BFD002C02D10020FCF726FD43
:10ED60002878207069886170090AA170A988E1700B
:10ED7000090A2171E8886071000AA07170BD000065
:10ED800007490979490701D408207047002804D0B1
:10ED9000044949780160002070470E207047000048
:10EDA000002000204426002030B5124B1B795B0761
:10EDB00001D4082030BD002805D0002A03D0046803
:10EDC000002C10D101E00E2030BD0B4B1D68002D32
:10EDD00009D045681889414369185D8945435868D9
:10EDE0002818884201D8072030BD146000205160E7
:10EDF00030BD00000020002010270020FEB5054691
:10EE000025480E460079400701D40820FEBD002D9C
:10EE100003D02868002834D101E00E20FEBD1F4C2D
:10EE2000216800292DD060892189484361684118F3
:10EE30006868814225D9FFF767FA00280FD0686813
:10EE4000019029680C2251430F1979680091401AEA
:10EE500039890C46FCF76AF9002912D101E010202B
:10EE6000FEBD21463046FCF761F9002909D1002E8C
:10EE700007D078894443019881190098001981428C
:10EE800001D90720FEBD00200246009033462946E6
:10EE90000320FEF725F8FEBD0020002010270020EB
:10EEA00010B507484469601C06D000F00BF8014615
:10EEB0002046FCF73BF910BD01200007406910BD5A
:10EEC0000010001001200007006980B270470000A8
:10EED00070B500240F482546047044702846FDF79D
:10EEE000EFFF6D1C0A2DF9D30B4D6C80FFF7D8FF97
:10EEF000861EFFF7E7FF46430648AE60CC306C61E4
:10EF00000460048144812C70AC610420EC61686071
:10EF1000002070BD4426002000200020FFB52748B7
:10EF200081B000791F4616460D46400702D40820DE
:10EF300005B0F0BD002D06D00198002803D0286848
:10EF4000002815D101E00E20F2E71D4C20680028B2
:10EF50000ED0618920896268414389186A689142AC
:10EF600006D9002E04D0B04202D3F119814201D952
:10EF70000720DDE70198FFF7C7F900281BD03846C6
:10EF8000FFF7C2F9002816D06868FFF7BDF900281E
:10EF900011D068683246C1190198FCF7F1F8009663
:10EFA00028680C2148432458002202212846019B4E
:10EFB000A0470020BCE71020BAE700000020002096
:10EFC00010270020F8B52C4D044628790E4640073E
:10EFD00001D40820F8BD002C20D0002E1ED02068BF
:10EFE00000281BD0FFF76EFF0146A088814213D393
:10EFF000102811D3E08800280ED0FFF751FF471EDC
:10F00000FFF760FF4743E288A188A8684A431218C7
:10F01000974201D3890703D00720F8BD0E20F8BD21
:10F020006988012926D031600C22144B514370604D
:10F03000CA18506020685850A0881081E08850811C
:10F04000FFF740FF0646FFF73DFFA188E288401E1C
:10F05000514340183146FCF77FF80446FFF732FF72
:10F060000146A86861430818A8606888401C688049
:10F070000020F8BD0420F8BD00200020102700204B
:10F08000F8B5044620481E46007915460F4640074D
:10F0900001D40820F8BD002F05D0002C03D0206833
:10F0A000002815D101E00E20F8BD1848016800299C
:10F0B0000ED04289018940684A4310186268904224
:10F0C00006D9002D04D0A94202D3A819884201D93B
:10F0D0000720F8BD3846FFF717F9002811D0304651
:10F0E000FFF712F900280CD06068FFF70DF900282F
:10F0F00007D02B463A46214601200096FDF7F0FE48
:10F10000F8BD1020F8BD00000020002010270020CE
:10F1100010B5114902460878002811D004280FD0F4
:10F12000022A16D0032A0BD10A79120711D48A6950
:10F13000521C8A61032A08D0022802D000F03CFA4F
:10F1400010BD487800F090FB10BD0D20FCF756FB79
:10F1500010BDFEF797FE10BD00200020F8B5044654
:10F1600020481E46007915460F46400701D4082066
:10F17000F8BD002F05D0002C03D02068002815D141
:10F1800001E00E20F8BD1848016800290ED0428920
:10F19000018940684A4310186268904206D9002DE0
:10F1A00004D0A94202D3A819884201D90720F8BD8A
:10F1B0003846FFF7A9F8002811D03046FFF7A4F829
:10F1C00000280CD06068FFF79FF8002807D02B4676
:10F1D0003A46214604200096FDF782FEF8BD102035
:10F1E000F8BD0000002000201027002070B5012489
:10F1F0000B49600408600B49401088600949403998
:10F200008860094D6C602F20FBF764FFAC60074DF0
:10F2100000242F202C61FBF75DFFEC7070BD000017
:10F2200080E100E040130140001001403820002040
:10F2300030B50A48FF21C57D0022094C0931094B30
:10F24000002D625007D09969437EC268D154417E37
:10F25000491C417630BD986930BD0000642700200C
:10F2600000200040002500401FB501236A461370AE
:10F2700010720348019106C8684690471FBD000000
:10F28000642700200A780648012A02D0022A05D104
:10F2900002E04968016101E00121817001207047AD
:10F2A000001F0020F0B5054604462035A87985B03A
:10F2B000022819D1697B68460180002601960296D2
:10F2C00003960496A18881800227877106810390A6
:10F2D00020462E300490A08901A9A6DF0B49002802
:10F2E00004D0C84208D1AF7105B0F0BD6946687B53
:10F2F0000988884206D00C20AE71A16A0029F3D09B
:10F300008847F1E70320A871EEE70000FCCFFFFF7C
:10F3100008B502490020009108BD0000001F002030
:10F3200010B51648512101600124642184604160B8
:10F3300004730146124800F041F810480A211030C9
:10F3400001608460282141600024047301460C4858
:10F35000083000F033F809481421203001606E2194
:10F36000416003218160047301460548103000F0BC
:10F3700025F8034814380461847010BD3C23002034
:10F38000141F002010B503680A6889689C1A8C4213
:10F3900002D9591A016010BD01210260017110BD2E
:10F3A00010B54B68026889689C1A8C4202D95118C2
:10F3B000016010BD00210360017110BD0A7B002AAD
:10F3C00003D049680160002102E009680160012161
:10F3D0000171704710B5044600790028204602D01C
:10F3E000FFF7DEFF01E0FFF7CDFF206810BDFFB59E
:10F3F0000746806A81B0144600283DD00025384673
:10F400002030009033E00C20B96A68430E18B088B1
:10F41000801CFE2802D90C2005B0F0BD228802997C
:10F42000401C885420881622401C80B220800299FB
:10F430000A542088401C80B22080029941183088EC
:10F4400000F0BEFB2188401880B22080B288002ADC
:10F450000AD0B16800290FD0029BC018FBF790FEBC
:10F460002088B188401820806D1C0098EDB2007B88
:10F47000A842C8D80020CFE70720CDE710B5A0B03C
:10F48000282110A8FBF795FE0024072110A810944E
:10F490008181601C0207120F10A810320271601CDB
:10F4A0000207120F10A810328272601C0207120F9E
:10F4B00010A8103242720120024610A81032C27108
:10F4C00081732C4814902C4815900A2110A80176BD
:10F4D000042118A801771FA818900120014618A838
:10F4E0001031417110A92548FCF752FE002801D0C7
:10F4F000FCF75CF914211AA8FBF75BFE012001461A
:10F5000018A8103141750120014618A810318175E5
:10F510000020014618A8C1750120014618A8103125
:10F52000017601211A94017364211C94017513481A
:10F530001AA91838FCF766FD002801D0FCF736F947
:10F5400040216846FBF735FE0DA16846FDF77EF8C1
:10F550000120014608A8103101770020014608A8C3
:10F5600041776846FCF7E8FE002801D0FCF71EF959
:10F5700020B010BD85F201002C1F0020D4220020F5
:10F5800043616C6C756D5F53696E636C6169720089
:10F5900010B50020FDF7E0F9002801D0FCF706F9CE
:10F5A000FDF72AF9002801D0FCF700F93CDF00281C
:10F5B00001D0FCF7FBF810BD10B50F49002808700A
:10F5C00009D0012811D0022812D0032802D148699D
:10F5D000FEF798FC10BD00208861C861074840789C
:10F5E0000028F7D0FDF750FC10BD00F0F5F810BD75
:10F5F00000F054F810BD0000002000204426002038
:10F60000002803D00249C860002070470E207047D0
:10F61000582000201CB5034901910091694660DF24
:10F620001CBD0000001F002070B50E4605461446A4
:10F6300014211046FBF7BDFD01200021208021612F
:10F64000217326726572002D00D0A072002070BD5B
:10F6500010B5FCF79DF810BD70B5002901D08C07DE
:10F6600001D0072070BD064C0125A16062800549CC
:10F67000636010DF0028F5D1257016202EDF70BDE5
:10F680005820002051F60100002803D002490861EB
:10F69000002070470E20704758200020F8B5164C07
:10F6A00014226068400840006060144801785143AB
:10F6B0000E183769FFF706FC01463846FBF736FDA2
:10F6C00005466061FFF7FEFB0146F0887F1EC0190A
:10F6D000FBF72CFD02228542606801D1104300E057
:10F6E00090436060E1681040084303D0002000F0C0
:10F6F000BBF8F8BD0220FAE70020002044260020D5
:10F7000010B502484069FEF7FDFB10BD0020002047
:10F7100010B5FFF7C5FB441EFFF7D4FB4443FFF7CA
:10F72000D1FB04494A69521E5043CA682146FEF77C
:10F73000EEFB10BD00200020F8B51048142201781F
:10F7400051430C182569FFF7BDFB0146E08822896B
:10F7500080184019FBF7EAFC0F46FFF7A1FB461E95
:10F76000FFF7B0FB4643E0882289F1198018044A6C
:10F7700040191269FEF7CBFBF8BD000044260020BB
:10F780000020002070B5FFF79DFB0546FFF788FBC2
:10F79000441EFFF797FB60432946FBF7C7FCFEF7C3
:10F7A000B1FB70BD70B5FFF78DFB8608FFF78AFBD4
:10F7B0000749496948430446FFF772FB451EFFF7B6
:10F7C00081FB684332462146FEF7A1FB70BD000075
:10F7D000002000200020704770B5144814220178E2
:10F7E00051430C18241DFFF76DFB6188104E8842B1
:10F7F00011D2FFF767FB61880D1AFFF763FB8208E0
:10F80000A188E0684018216940194919FEF77FFB7B
:10F81000FFF758FB07E0A288E06880188A08216992
:10F82000FEF775FB6088F06170BD00004426002083
:10F830000020002010B505480079000703D40120FE
:10F8400000F012F810BD00F003F810BD00200020F9
:10F8500010B504480822416891434160407800F0A7
:10F8600003F810BD002000200249487002498000C2
:10F87000085800470020002038FE010010B504465B
:10F88000FFF746FC2046FCF753FA10BD70B50C009C
:10F89000054602D10020FBF789FF002D02D1002090
:10F8A000FBF784FF207828702088FF210902084098
:10F8B000000A6870206809020840000CA8702068DF
:10F8C000000EE87020792871207A68712089000A7A
:10F8D000A871A068000CE87170BD000010B5054863
:10F8E0000079000702D4FDF7BDFA10BDFFF7B0FFA5
:10F8F00010BD000000200020FEB51F4C0025276928
:10F90000E06802906846FEF78DFA0190FEF738FD38
:10F9100006460198002822D000230098E16817E0ED
:10F920000E680A46864202D9301A086012E0801B2F
:10F93000F31800261660D668D169B446002E07D0A9
:10F94000FE183602360A566066469660D561154640
:10F950000029E5D12846E160FEF770FD06E0284663
:10F96000FEF76CFD002801D1002E02D00298FDF7B1
:10F97000FBFA00202071FEBD382000200120024942
:10F98000000508607047000000E200E010B50E4B73
:10F99000D968002906D002680C68A24204D8A21ACD
:10F9A0000A60C161D86010BD0B4604E00B46C9690E
:10F9B000121B002904D00C689442F7D3A41A0C60DF
:10F9C0000260C161D86110BD38200020F8B51D4D1E
:10F9D000EC68002C34D01C48002740682969401A84
:10F9E0000602360A2068B04218D8361AC7192246CD
:10F9F000107CE46900280FD0002010746B69002B84
:10FA000007D0916950699847002805D0FBF7CEFED2
:10FA100002E0516990698847002CE3D16978A878A1
:10FA2000814206D1401CC0B2A870022801D100203A
:10FA3000A87004490006800D18310F50FFF79EFF93
:10FA4000F8BD00003820002000150140FF210748C4
:10FA50001D31002242500648828A8168895C828A70
:10FA6000521C82820348C1617047000000200040A0
:10FA700064270020002500401FB500216A46117050
:10FA80001072044882680192817506C868469047E2
:10FA90001FBD000064270020F0B5454D012185B051
:10FAA00049022846FEF7C5FF01270026414C0028E1
:10FAB00024D0FF2125312846FEF7B6FF00281DD0AF
:10FAC000FF2025302E5081203B4980008860A07E99
:10FAD000002800D16F60022168460170374908682C
:10FAE00008600390E17D68460172E0680190E67568
:10FAF000267606CC6846083C90472BE00421284631
:10FB0000FEF797FF002825D0FF2109312846FEF790
:10FB10008BFF00281ED0FFF78BFBE07D617E8842C3
:10FB200018D1207E002808D0627EE168E075206947
:10FB3000E0602676667610460AE0A07E002800D1B6
:10FB40006F6081201C4980008860E675607EE168F6
:10FB5000FFF78AFBFF211D312846FEF765FF0028CD
:10FB60000DD0A18AA07D814202D2FFF76FFF06E08F
:10FB7000FF211D316E50002801D0FFF77DFFFF21CE
:10FB800045312846FEF750FF00280ED0FF204530B3
:10FB90002E50A07E002800D02F60E07D002804D0E9
:10FBA000E675607EE168FFF75FFB05B0F0BD000021
:10FBB00000200040642700200023004080240040F3
:10FBC0000870000A4870022070470870000A4870E8
:10FBD0000220704701218140024842688A43426006
:10FBE00070470000E81F002038B51549154A4888BD
:10FBF00090420FD04A78144C521CD2B24A70237BE8
:10FC0000934208D3091D75DF002803D0A16900299C
:10FC100000D0884738BD00254D70217C002907D0D1
:10FC20003B2176DF002803D0A169002900D0884756
:10FC300061690029EED068460570884738BD00002C
:10FC4000881F0020FFFF0000FC24002012494868A4
:10FC5000C005C00D19D0103840B2002807DA0207DD
:10FC6000120F083A920892005118C96904E08108FD
:10FC70000A4A8900891809688007C00EC140080631
:10FC8000800F012803D0032803D0022070470020F2
:10FC9000704701207047000000ED00E000E400E044
:10FCA00042788378521CD2B2934200D1002203786A
:10FCB000934201D1002070470A70416840781822B1
:10FCC000504308187047FFB583B016460C9D0D9C35
:10FCD0001F46022200950194039800F00CF80028BA
:10FCE00007D13B461022314600950194039800F05D
:10FCF00002F807B0F0BDFFB583B0074600200C9CAA
:10FD00008646268805463AE07868A9004218118898
:10FD1000684681805188C1800022694601A865DF5C
:10FD2000002839D1684601780598814226D170466D
:10FD3000002801D0002200E0022220888918421801
:10FD40000D998A4227D8714600290AD1401C80B2F9
:10FD50002080069A049911542088401C208001209C
:10FD60008646218806980A18694601A865DF00289A
:10FD700012D1694620880978401820806D1C388887
:10FD8000A842C1DC704600280AD02088801B401E93
:10FD900080B2FF2802D90C2007B0F0BD0699885523
:10FDA0000020F9E70179002902D1007B002800D06A
:10FDB000012070476C2000208C2000206C23002044
:10FDC0008C230020B8230020110000001200000046
:10FDD0001300000014000000110003000DC8010012
:10FDE000120003000DC80100130003000DC801003C
:10FDF000140003000DC80100DC24002010000000E6
:10FE00000000000000000000AFE701005DE001001D
:10FE100079DF010019E10100ABE701002DE00100ED
:10FE200075DF010011E10100A7E701007DDF01009E
:10FE300071DF010009E1010085F70100A5F701006C
:10FE400001F7010039F7010011F7010035F8010051
:10FE500025D50100D1D40100DDF8010071E10100D8
:10FE6000802700200300000088FE0100001F002002
:10FE70006C01000028B20100ACFE01006C200020E3
:10FE8000340F00007EB40100510327FFFF2E04054C
:10FE9000060708090A0B0C0D16180108250F180192
:0CFEA000000A1801A324F403FBFFFF007C
:040000050001B0C185
:00000001FF
