:020000040001F9
:10B00000B04700208DB4010095B4010097B4010051
:10B0100099B401009BB401009DB401000000000040
:10B020000000000000000000000000009FB40100CC
:10B030000000000000000000A1B40100A3B4010062
:10B04000A5B40100A5B4010091B90100A5B40100A7
:10B05000A5B40100A5B4010081B50100A5B40100AB
:10B06000A5B40100A5B40100A5B40100A5B4010078
:10B07000A5B40100A5B40100A5B40100A5B4010068
:10B08000A5B40100E9B60100A5B40100A5B4010012
:10B090000DB70100A5B4010011B70100A5B401006E
:10B0A000A5B40100A5B40100A5B40100A5B4010038
:10B0B000A5B40100A5B401000000000000000000DC
:10B0C000A5B40100A5B40100A5B40100A5B4010018
:10B0D000A5B40100A5B401000000000000000000BC
:10B0E0000000000000000000000000000000000060
:10B0F0000000000000000000000000000000000050
:10B10000000000000000000000000000000000003F
:10B11000000000000000000000000000000000002F
:10B40000DFF80CD000F08CF8004800475DEA01003E
:10B41000B0470020401E00BF00BF00BF00BF00BFFC
:10B4200000BF00BF00BF00BF00BF00BF00BF00BF24
:10B4300000BF00BF00BF00BF00BF00BF00BF00BF14
:10B4400000BF00BF00BF00BF00BF00BF00BF00BF04
:10B4500000BF00BF00BF00BF00BF00BF00BF00BFF4
:10B4600000BF00BF00BF00BF00BF00BF00BF00BFE4
:10B4700000BF00BF00BF00BF00BF00BF00BF00BFD4
:10B4800000BF00BF00BFC5D170470000064880471D
:10B4900006480047FEE7FEE7FEE7FEE7FEE7FEE7B9
:10B4A000FEE7FEE7FEE7000035B7010001B401004A
:10B4B00040EA01039B0703D009E008C9121F08C036
:10B4C000042AFAD203E011F8013B00F8013B521EB6
:10B4D000F9D27047D2B201E000F8012B491EFBD22D
:10B4E00070470022F6E710B513460A46044619468F
:10B4F000FFF7F0FF204610BD421C10F8011B002989
:10B50000FBD1801A704730B504460020034600E0A6
:10B510005B1C934203D2E05CCD5C401BF8D030BD95
:10B52000064C074D06E0E06840F0010394E8070090
:10B5300098471034AC42F6D3FFF766FF6004020070
:10B540008004020030B58C1810F8012B12F00F03A4
:10B5500001D110F8013B120906D110F8012B03E0CC
:10B5600010F8015B01F8015B5B1EF9D101E001F805
:10B57000013B521EFBD1A142E6D3002030BD0000AA
:10B580002DE9F0470025DFF8F090A8464FF48076CB
:10B5900001242F46304603F0DFFC38B1D9F804030C
:10B5A000204203D0304603F0CDFC2543361D640015
:10B5B0007F1CB6B2082FEDD34FF4BE74204603F0C3
:10B5C000CBFC38B1204603F0BDFC2C4845F00045CB
:10B5D000D0F800802A4E15F0FF0F14D00127002468
:10B5E0002F420CD009EB8401D1F81005D1F81015C9
:10B5F000C0F3042056F82420C1F3014190477F0096
:10B60000641C082CECD3002D32DA0024B14609EB7F
:10B6100004004E4690F95010491C26D090F8507006
:10B6200027F0C005284601F0E5FD56F82060E6B198
:10B63000BF090120A840A90001F1A041D1F80017DD
:10B6400010EA080FC1F3014102D0022902D00CE038
:10B6500003290AD1032F05D102290BD00221284644
:10B6600003F061FC39462846B047641C042CCED355
:10B67000BDE8F0870321F2E70060004010050050AC
:10B680001827002000F01F0201219140400980008E
:10B6900000F1E020C0F88012704700F01F02012185
:10B6A00091404009800000F1E020C0F8001170478F
:10B6B00000F01F02012191404009800000F1E020CC
:10B6C000C0F8001270474907090E002806DA00F09A
:10B6D0000F0000F1E02080F8141D704700F1E02019
:10B6E00080F800147047000007480021C0F840119E
:10B6F000C0F84411C0F84811C0F84C11C0F800114E
:10B70000C0F8041104F014BC0010014004F0ACBBFC
:10B71000074810B5406830B18047002807D0BDE821
:10B72000104000F0D7BABDE8104003F031B810BDAA
:10B7300054200020F0B58C480022041D0378211D00
:10B74000081D0126062B17D125782D0714D10D7859
:10B75000C5F30315032D03D1077817F0F00F0ED0B2
:10B76000042D03D1077817F0F00F08D0052D03D171
:10B77000057815F0F00F02D0062B09D014E04FF039
:10B780008055D5F84452794FC5F342353D6002E00B
:10B7900025782D0708D10D78C5F30315032D03D1A6
:10B7A000057815F0F00F02D0062B06D01DE0704D85
:10B7B0002F6827F080772F601AE025782D0714D1A5
:10B7C0000D78C5F30315032D03D1077817F0F00F9B
:10B7D0000ED0042D03D1077817F0F00F08D0052DF7
:10B7E00003D1057815F0F00F02D0062B0AD015E032
:10B7F0004FF08045C5F80C21C5F810215B4D2D1F79
:10B800002A6002E025782D0708D10D78C5F30315CD
:10B81000032D03D1057815F0F00F02D0062B05D0CB
:10B8200066E0524C03236434236002E023781B0754
:10B830005ED10978C1F30311052959D1007810F0C0
:10B84000F00F55D14B4800684B4908604948001D2E
:10B850000068091D0860474808300068091D086035
:10B8600044480C300068091D0860424810300068E8
:10B87000091D08603F4814300068091D08603D48F4
:10B88000183000683C49203108603A481C30006894
:10B89000091D0860374820300068091D08603548D8
:10B8A00024300068091D0860324828300068091DEE
:10B8B000086030482C300068091D08602D48303081
:10B8C00000682D49403108602A4834300068091D5D
:10B8D0000860284838300068091D086025483C3059
:10B8E0000068091D0860234840300068091D086091
:10B8F0001F487438016841F470010160BFF34F8F35
:10B90000BFF36F8F4FF01021D1F80002002803DB46
:10B91000D1F80402002822DA184B1E601848046887
:10B92000002CFCD01524C1F800420568002DFCD085
:10B93000C1F8044201680029FCD01A60016800299E
:10B94000FCD0BFF34F8F0A48F03801680D4A01F46C
:10B95000E06111430160BFF34F8F00BFFDE70B496A
:10B9600009480860F0BD0000E00F00F03C05004011
:10B97000FCED00E00404001020C5004004E5014097
:10B9800000E401400400FA050090D003601F00208D
:10B990000348007F08B104F0B5BB04F02FBB0000E2
:10B9A0007027002002E008C8121F08C1002AFAD13F
:10B9B00070477047002001E001C1121F002AFBD12F
:10B9C00070472DE9FC5F0025168807461580406BFF
:10B9D00014468946A8464FF00C0A11234FF0020B7B
:10B9E00098B101784846032E48D380F800B02288E9
:10B9F000521C92B2228083542288521C92B222801E
:10BA000009F802102088401C20803A6BDAB12088A7
:10BA1000494600F11205B54230D80B542088102356
:10BA2000401C80B220800B542088401C20800F20B6
:10BA30002388155C401ECD54238840B25B1C2380B4
:10BA40000028F5DA454697F82E0030B133462246F5
:10BA5000494602F00BFF050011D197F82D0030B1D7
:10BA600032462146484600F0C6FE050007D1B878A8
:10BA700020B32088C846001DB04202D95046BDE818
:10BA8000FC9F684679DF0028F9D12188032008F857
:10BA9000010020881921401C80B2208008F8001085
:10BAA0002088401C80B2208000EB0801BDF8000017
:10BAB00004F094FB0146208808442080F878B8B14F
:10BAC000228897F90310D31C4846B342D6D800F811
:10BAD00002B022880123521C92B222808354228811
:10BAE000521C92B2228009F802102088401C20804B
:10BAF0007868B8B1218890F90020CB1C4846B34241
:10BB0000BCD800F801B021880A23491C89B22180E1
:10BB100043542188491C89B2218009F801202088DA
:10BB2000401C2080388950B1CDE900464B460622A2
:10BB3000022107F1080004F0CBFB05009FD1388AF1
:10BB400050B1CDE900464B460722032107F1100012
:10BB500004F0BEFB050092D1388B50B1CDE9004610
:10BB60004B461522142107F1180004F0B1FB050023
:10BB700085D1386A30B133462246494601F0EAFCA5
:10BB80000500DBD1786A30B133462246494603F0DE
:10BB90002BF80500D2D197F82C0038B13346224655
:10BBA0004946384603F0C2FE0500C7D1387838B19F
:10BBB000334622464946384603F048F80500BDD1D1
:10BBC00028465CE710B501220221002001F02CF983
:10BBD00008B1072810D107220221012001F024F921
:10BBE00008B1072808D100210A22084601F01CF9F3
:10BBF00008B1072800D1002010BD000006480068E9
:10BC00004FF40021044A8143121D1160111D00F4FC
:10BC100000200860704700000405005070B5002443
:10BC2000064D06E06868012110F8340003F07EF844
:10BC3000641C28788442F5D3002070BD20200020A9
:10BC4000F8B515460C460646052A01D20720F8BD70
:10BC500003F04EF918B903F021F90028F7D1104983
:10BC600000204E600C70C1E902500E4D08610DE0DD
:10BC700006EBC4006968009181788DF801100078A6
:10BC8000094A694603F0A4F80028E0D1641EE4B232
:10BC9000EED2BDE8F840054A0021024800F052B853
:10BCA0002020002058040200C1E6010085DA0100CE
:10BCB000BFF34F8F05480168054A01F4E061114365
:10BCC0000160BFF34F8F00BFFDE700000CED00E007
:10BCD0000400FA050EB500210091CDE901106A4675
:10BCE00044F20100FFF7E4FF014B1B681847000016
:10BCF0001C26002038B50C46074BA268097802EBD9
:10BD0000420253F82250054A126A0092024604F198
:10BD100008002369A84738BD0C270020FC1F00201D
:10BD2000074910B50A7802EB820201EB8201091D76
:10BD3000FFF7E0FFBDE81040042003F007BF00005C
:10BD400040260020074B9B6823B12AB120B1006830
:10BD5000037C1BB108207047072070474174426183
:10BD600000207047342000202DE9F0478046994696
:10BD700014460F4690074FF0000634D11C4D8CB38B
:10BD800003F0D4FC0320C5F81490287004F11800C7
:10BD9000002107EB4703AC6004EBC102491C16709D
:10BDA00056709770506000EBC3000329F4DBEE601F
:10BDB0006E70AE701420FFF765FC03211420FFF7AE
:10BDC00082FC1420FFF769FC0A49C1F800800321B6
:10BDD0001120FFF778FC0748001F00682861002049
:10BDE000BDE8F08701E00720FAE7AE60FBE700005E
:10BDF00034200020081501402DE9F843DFF8709049
:10BE00000D461746D9F80810044651B34CB3052D1A
:10BE100002D20720BDE8F883606910B3607C012876
:10BE200021D0002604F01EFAD9F80810804601EB54
:10BE3000C800694604F038FAB8B1012100F8041BC3
:10BE40000C4910C0096880E8E200D9F8081001EB3D
:10BE5000C8009DF8001041701420FFF729FC002055
:10BE6000D8E70820D6E72E46DCE70420D2E700001A
:10BE70003420002004150140F8B5124E0446B16884
:10BE8000E1B1DCB16069C8B10027277404F0EAF9B8
:10BE90000546B068694600EBC50004F005FA78B1C4
:10BEA000022101704460B0689DF8001000EBC500ED
:10BEB00041701420FFF7FCFB3846F8BD0820F8BDA0
:10BEC0000420F8BD342000202DE9F0430546007D14
:10BED00093B00E460024A0B107949DF81C0020F0FA
:10BEE0000F00401C20F0F00010308DF81C00707B1B
:10BEF0008DF81D009DF81E0020F00600801C8DF8B6
:10BF00001E001C216846FFF7ECFA9DF8000040F087
:10BF100002008DF80000297D11B140F0100001E011
:10BF200020F010008DF80000019403940494287D03
:10BF300000B107A8CDE9050401278DF8427042F64B
:10BF40001920ADF840000D94B07B8DF83400F07BE3
:10BF50008DF835009DF83600142120F00600801C75
:10BF600020F019008DF83600307B8DF8440008A8C9
:10BF7000FFF7B7FA0DF140080DF13409ADF828705C
:10BF800011A8CDE90889ADF82A40ADF82C700C90C5
:10BF9000A888AB1D08AA6946A2DF002838D1B0687E
:10BFA00098B38DF8427042F60810ADF840000D9439
:10BFB000307C8DF834009DF8350020F0FF008DF8BE
:10BFC00035009DF8360020F00600801C20F0190096
:10BFD0008DF836000EA8B16800F0D5FD0646142194
:10BFE00008A8FFF77EFAADF828600EA8CDE9088909
:10BFF000ADF82A40ADF82C600C90E88805F10E02EF
:10C0000008A9A3DF002803D101E0FFE7EC810020AD
:10C0100013B0BDE8F083000010B50D490D4803F0E2
:10C0200078FCC1B20A48803800F042FA00280DD0EE
:10C0300008280BD0A0F54051043907D043F2014144
:10C04000884203D0BDE81040FFF744BE10BD000099
:10C0500038230020101F0020F0B50C4693B01F219C
:10C060000726ADF80010ADF80410002750B1C178D4
:10C0700049070DD56A4602A9FFF7A3FC002808D19D
:10C0800002AD02E00025ADF800706CB1E07810B1AF
:10C09000304613B0F0BD01AA0AA92046FFF791FC73
:10C0A0000028F6D10AAA02E00022ADF80470BDF81B
:10C0B0000400C3B2BDF80000C1B2284672DFE8E751
:10C0C00070B50D4604991646040040D0F6B34148B9
:10C0D00000224271C0E90331242231463E48FFF775
:10C0E000E7F900F0D5F83C493431A1F110000160C6
:10C0F0002031816038215C38FFF7F3F93648217828
:10C1000038380170A1788170E178C1706178417030
:10C11000D4E90412C0E90412D4E90212C0E90212FF
:10C12000D4E90612C0E90612616AD1B100F1AC018E
:10C1300000F1B80241628A60636A1B880B80616A01
:10C14000436A898899800021436A07E0FFE70E204F
:10C1500070BD666AB668765C5654491C9E888E42ED
:10C16000F7D8A16AD9B11C4AAC32A2F10C018A609D
:10C170008162A36A9B888B80A16A836A098819807F
:10C180000021836A04E0A66AB668765C5654491CAE
:10C190009E888E42F7D894F82C1080F82C10216AD3
:10C1A00049B10C4914310162226A52884A80216ADD
:10C1B000026A09881180616821B10649891D4160C0
:10C1C000616841602946BDE8704003483838FFF790
:10C1D00043BF0000641F00200C24002010B502881B
:10C1E0001D4C102A18D00021112A1BD0192A18D151
:10C1F0008079002815D16079012820D0022824D028
:10C20000032824D004280CD12171E2680846002AB2
:10C2100007D0BDE810401047017D012901D1808879
:10C22000208110BD6170808821898842F9D1012068
:10C2300006E021690029F4D0BDE81040084702203B
:10C2400000F04AF80028F4D110BD0320F8E70320DD
:10C2500020710420F4E70000641F002010B50228BC
:10C2600001D0032810D1094C207800280CD00020E0
:10C270002070607900F030F8002805D0216900298D
:10C2800002D0BDE81040084710BD0000641F002028
:10C29000024800218161818381777047641F0020FB
:10C2A0000B4810B50078012810D10A4C607868B9A5
:10C2B000607910B174DF002809D1012060706079C5
:10C2C00000F00AF810B1216901B18847002010BDC3
:10C2D0000C240020641F00202DE9F04F724C87B021
:10C2E0000026607106A8069602F0EEFF01270828D6
:10C2F00005D0002871D1069810B12770C0E00696CD
:10C30000FFF7C6FF694D687810B16079012804D045
:10C31000A87848B16079022806D1E16819B1E770C0
:10C320000820884700E0E6706079DFF87C814FF0F4
:10C33000020A08F118084FF0030B012806D16878AB
:10C3400040B108F1010002F065FF18B160790228E0
:10C3500002D00AE084F805A0A87820B108F1010015
:10C3600002F058FF08B984F805B0287B4FF00409A3
:10C3700020B96079032801D184F80590287E20B97E
:10C380006079042801D166712671E16841B1607954
:10C39000032801D0042803D1287808B16078C0B1FF
:10C3A000A67018216846FFF79CF88DF8006001968A
:10C3B0008DF808600396607901280FD0022817D005
:10C3C0003A4E2436A6F15C0703281ED004284DD12E
:10C3D0003BE0A77007208847E3E752E0ADF8126022
:10C3E000CDF804808DF80070ADF8106027713FE043
:10C3F000CDF804808DF800702889ADF81200A88867
:10C40000ADF8100084F804A032E0A88AADF812005C
:10C41000288AADF810002548243003F0C0FF18B179
:10C42000287808B1607810B184F804B01EE01F4885
:10C430008DF808A0039687F8039000213838FFF79D
:10C440000BFE00281DD105202BE0A88BADF81000B5
:10C45000288CADF812001548243003F0A0FF18B165
:10C46000287808B1607878B184F80490607918B1C0
:10C47000684673DF002804D1E16809B12079884754
:10C48000002007B0BDE8F08F08488DF808A003969B
:10C4900087F8039000213838FFF7DEFD0028F0D13F
:10C4A00006202071E2E70000641F00200C24002019
:10C4B00073B586B0040034D0217C9DF81C20002088
:10C4C00091422CD0002501260095ADF8006007A808
:10C4D000ADF802500190E188608A6A46A4DF002826
:10C4E0001DD19DF81C002074608AA0F57F41FF39A2
:10C4F00019D0207DB8B10295039504950595E08883
:10C50000ADF80800BDF80200ADF80C0001988DF8F8
:10C510000A60CDF810D00590608A02A9A6DF08B0A5
:10C5200070BD0E20FBE70820F9E738B50D46040082
:10C530001BD0D5B1286820604FF6FF706082287943
:10C540002075FF20207401208DF8020041F60F00B5
:10C55000ADF80000221D69460120A0DF002803D1AC
:10C5600029462046FFF7B0FC38BD0E2038BD08B57F
:10C57000002821D000291FD00A88102A17D0112A9C
:10C5800017D0502A18D1027D002A15D031F8062F75
:10C5900043899A4210D10A8B022A0DD10268002ADF
:10C5A0000AD0897E11F0010F07D0002106E08988AA
:10C5B00001E04FF6FF71418208BD01218DF80010A6
:10C5C0006946904708BD000070B5054601461C222B
:10C5D0000F48FEF76DFF0F4C00262670286830B11B
:10C5E000016861604068A060201D7ADF02E00948B0
:10C5F000001D7BDF00280AD14FF6FF706080667057
:10C60000BDE87040044A00210448FFF79BBB70BDA1
:10C61000F8240020841F002005020200F00302001D
:10C6200070B5204C068800251D49E289102E15D0D2
:10C630001D4B112E1ED0122E2BD0502E19D130F89A
:10C64000061F914215D1018B022912D1807E10F074
:10C65000010F13D0BDE8704000F0C2BF83884B804B
:10C66000D0F81630CB60D0F81A0008614D70002A5F
:10C67000F0D070BD4FF6FF7048804D701868FFF71E
:10C68000FBFB0028F5D0A1690029F2D0BDE870407D
:10C69000084750F8062FCA6040680861DAE70000D2
:10C6A000841F0020F8240020F003020030B5054666
:10C6B00087B0086828604FF6FF70E883888928846F
:10C6C00001208DF81A0041F616000C46ADF818004E
:10C6D0002A1D06A90120A0DF002831D121462846C5
:10C6E00001F04CF800282BD12146284600F0D0FF5D
:10C6F000002825D1206A28B12146284601F0D7F824
:10C7000000281DD1E0690590207E8DF81000A07BE7
:10C710008DF803002069029060690390B4F8070067
:10C72000ADF80000607A8DF80200E88AADF81200DA
:10C73000A888ADF80400694605F1240000F03EF930
:10C7400007B030BD30B50446C08B8BB0A0F57F423A
:10C75000FF3A23D005AA204601F075F80546ADF84A
:10C76000000000200190029003900490E188ADF851
:10C7700004100121ADF808008DF8061005A8CDF8C9
:10C780000CD00490E08B01A9A6DF002804D1BDF8ED
:10C790000010A94200D00C200BB030BD0820FBE7F0
:10C7A00038B504460D46243000F07EF9288810285C
:10C7B00015D0112815D0502816D135F8061F6289DA
:10C7C0002046914210D1298B02290DD10268002AFE
:10C7D0000AD0A97E11F0010F07D0002106E0A88839
:10C7E00001E04FF6FF70E08338BD01218DF80010A5
:10C7F0006946904738BD7CB5054608880C46093027
:10C80000904201D90C207CBD684671DF0028FAD126
:10C8100021880820685420881B21401C80B2208079
:10C8200029542088401C80B220802844DDF8011063
:10C830000160BDF8051081802088801D80B22080B5
:10C840009DF8001001B1012129542088401C20804E
:10C8500000207CBD7FB5044601208DF8060041F61E
:10C860000A00ADF80400454A01A90120A0DF002814
:10C870007ED1228804F13C0552B140482B46801CF1
:10C88000009042F62920616800F0BCFC002873D1BA
:10C89000228952B139482B460A30009042F62420B2
:10C8A000E16800F0AFFC002866D1228A52B133481B
:10C8B0002B461230009042F62520616900F0A2FC60
:10C8C000002859D1228B52B12C482B461A300090A7
:10C8D00042F62720E16900F095FC00284CD1228C1B
:10C8E00052B126482B462230009042F62620616A3B
:10C8F00000F088FC00283FD1228D52B11F482B4602
:10C900002A30009042F62820E16A00F07BFC0028E3
:10C9100032D1216B71B102A803F07BFA17482B4684
:10C9200032300090082202A942F6232000F06AFC6F
:10C93000002821D1606B58B110492B463A31009143
:10C940000279016842F62A2000F05CFC002813D12D
:10C95000A16B81B102A802F09DFC08482B46423031
:10C960000090072202A942F6502000F04BFC00E0A4
:10C9700002E0002800D1002004B070BD981F002004
:10C9800010B5044601F084F921460B48FFF708FF73
:10C99000094821461838FFF7EAFD2046FFF740FE18
:10C9A000204600F077F9204602F000FB2046BDE863
:10C9B0001040FFF713BC0000D022002070B50446E1
:10C9C00090B04FF6FF70A081002684F826600A7CA4
:10C9D0002277087C0D4628B1E96819B104F10E00F0
:10C9E000FEF766FDA8886080A8682062E87820705D
:10C9F000688AA0846869A06207969DF81C001C21C3
:10CA000020F00F00401C20F0F00010308DF81C00CA
:10CA100028788DF81D009DF81E0020F00600801C6F
:10CA20008DF81E006846FEF75CFD9DF80000039639
:10CA300040F028008DF8000007A8CDE9046001202F
:10CA40008DF83A0042F65520ADF838000D969DF865
:10CA50003400019620F0FF0006968DF83400A87887
:10CA60008DF835009DF83600142120F00600801C5A
:10CA700020F0080040F011008DF8360008A8FEF7FD
:10CA800030FD0EA808900DA809901320ADF828607D
:10CA9000ADF82A60ADF82C000C966088231D08AA1A
:10CAA0006946A2DF10B070BD0B880022112B16D092
:10CAB00005DC012B2AD0102B10D1898811E0512BD5
:10CAC00011D0532B0AD1C9888388994206D190F896
:10CAD0002610032902D100BF80F8262070474FF6A8
:10CAE000FF718181F8E70A1D11F8063F022BF5D18D
:10CAF0009279042AF2D0062AF0D0052AEED04A888C
:10CB000083889A42EAD1891C02F09CBA90F82610D8
:10CB10000229E3D102F060BE70B5044690F8260009
:10CB20008EB0012802D008200EB070BD8DF82510FF
:10CB300002268DF8246004AA09A9204600F04EFFC1
:10CB40000025ADF834000095019502950395A08865
:10CB5000ADF800000DA8029004A88DF80260ADF8B1
:10CB600004500390A0896946A6DF0028DCD184F830
:10CB70002650D9E770B504460D460846FEF7BCFCC2
:10CB80002080656070BD0A7802704978417002208B
:10CB90007047000000B585B00023482214490820E2
:10CBA00003F01CF808B1FFF795F86A460121002050
:10CBB00002F0FEFF08B1FFF78DF80E4802F048FEC4
:10CBC00008B1FFF787F8684602F0E8FF08B1FFF701
:10CBD00081F8094802F0D8FF08B1FFF77BF8074851
:10CBE00003F014F8002801D0FFF774F805B000BD79
:10CBF00070220020001E002081C9010001FE0100FA
:10CC00001CB5044681786A460C4802F06FFB002888
:10CC100013D160780A49C0EBC00001EB80001C23EF
:10CC20001A46694602F00CFC054806494430807AF1
:10CC300051F820202146684690471CBDF41F002073
:10CC4000D8250020100402007CB5114E0C004FF0D6
:10CC50000005306015D06946002000F0B1F80028CA
:10CC600015D101A9012000F0ABF800280FD19DF8E3
:10CC7000041009B1022003E09DF8001001B10B205F
:10CC80002070706810B9FEF79DFF054628467CBDF0
:10CC9000581F002010B51A4C0188606810290ED06A
:10CCA00011292BD1401E606028D1FEF78BFF002890
:10CCB00024D02168002921D0BDE810400847D0B910
:10CCC00000210122084600F0AFF808B107280FD173
:10CCD00007220221012000F0A7F808B1072807D198
:10CCE00004220221002000F09FF820B1072802D082
:10CCF000216801B188476068401C606010BD000079
:10CD0000581F002010B5032000F020FA08B10628B3
:10CD100000D1002010BD00002DE9F0470746002497
:10CD2000244802E0641C042C41D250F82420BA426A
:10CD3000F8D1042C3BD21F48DFF87C901F4E0C38F2
:10CD4000A9F1140841B301290FD002292FD104EB16
:10CD5000440030444578002D29D0D8F8101000291F
:10CD600025D02846BDE8F047084704EB4401755C30
:10CD70000E44717861B1D8F804100F4A01EB8101BB
:10CD80004900133A8068FFF737F808B988F801704E
:10CD9000B17809F80410DEE78068FFF76DF804EB5E
:10CDA0004401314419F804008D78A842D3D0BDE87D
:10CDB000F0870000C0030200541F0020A8230020B9
:10CDC00004280CD2074A1268074B13F820300120C0
:10CDD0009840904300D00120087000207047002048
:10CDE000FAE7000010050050C003020010B5042847
:10CDF00007D0072810D00A2812D1BDE8104002F051
:10CE000091BE08481321408876DF07E0002807D04C
:10CE1000BDE81040FEF75EBFFFF742FA0828F5D1E3
:10CE200010BD0000001F002070B50023042810D2A0
:10CE30000D4D00EB4004012A02D101290CD0002243
:10CE4000094E00EB4000304461B1012906D00229AF
:10CE500006D00723184670BD0D30C2B22A55F9E737
:10CE60004270F7E78270F5E7A8230020044A0146E4
:10CE70000020127AD20702D0084600F055B8704759
:10CE8000401F002070B50E462149054600200A616A
:10CE9000C1E90165A9071BD50024012211462046DE
:10CEA000FFF7C2FF641C042C02D20028F5D00FE06B
:10CEB00070B9720804211748FEF7C2FE40B9FEF7A8
:10CEC000ADFE28B91348144A00211438FEF73AFF82
:10CED000E9070AD0114A4FF4F01111600F4B0022FC
:10CEE0001B1D1A600D4A1032116000280FD109482D
:10CEF0000B4A00211C38FEF725FF002807D1BDE8AA
:10CF0000704004480121074A1838FEF71BBF70BD66
:10CF1000401F0020D003020089D101000805005005
:10CF2000C1E80100FDBB01002DE9F84F854EDFF897
:10CF300010A24FF4E01CF16807462CEA010C0091A6
:10CF4000002071680AF10404251D7F4B4FF4003264
:10CF50004FF4802B01EB810E8146182F16D2DFE8AB
:10CF600007F00C17173A4E607083868F868FEAA001
:10CF7000A0A0A0A0CAD1D8E1EAEA009A4FF4F0112B
:10CF800091432160C5F8009086F80090BDE8F88FC5
:10CF9000C4F800C04846C5F80090DAF800C08CF428
:10CFA000F01C5FEA8C3C09D522602860022F02D178
:10CFB0004FF4E16008E04FF47A6005E02A602060F9
:10CFC000022F3CD04FF4C8706422B0FBF2F0414312
:10CFD000377000225EE0C4F800C04846C5F80090F3
:10CFE000DAF800C08CF4F01C5FEA8C3C04D52260B7
:10CFF00028604FF44870E7E72A6020601FE0C4F81B
:10D0000000C04846C5F80090DAF800C08CF4F01C67
:10D010005FEA8C3C02D522602860CCE72A60206061
:10D02000D0E7C4F800C04846C5F80090DAF800C060
:10D030008CF4F01C5FEA8C3CDED522602860C820AE
:10D04000C2E7C4F800C04846C5F80090DAF800C04E
:10D050008CF4F01C5FEA8C3C02D52260286001E071
:10D060002A602060377014E0C4F800C04DE0DAF8A0
:10D0700000002BEA0002226000F48020286008E013
:10D08000DAF800002BEA0001216000F4802028601B
:10D09000714600221868BDE8F84FFEF7ADBE21606A
:10D0A0002EE098465868FEF7E7FED7F1110100D050
:10D0B00040B1F16801F4F0112160C5F80090C6F8A4
:10D0C0000C9063E74FF40022F26001290CD9C820CC
:10D0D00011FB00F16420B1FBF0F1706800224143C4
:10D0E000D8F80400FEF788FEF16801F4F011296019
:10D0F000C4F800904AE74FF4F0112160C5F80090A1
:10D10000377043E74FF4E01121604946C5F80090BD
:10D1100006E04FF4D01121604946C5F800905A4608
:10D120002A60BCE74FF4C01121604946C5F8009061
:10D130004FF4C022F4E74FF4F01129604946AEE7FE
:10D1400004050050401F0020B403020070B5002108
:10D150000C4D012455F82120920002F1A042D2F892
:10D16000006704FA01F3034000D0032326F440369D
:10D1700046EA0343C2F80037491C0429EAD30020D9
:10D1800070BD0000C003020000780221FFF7C4BD9B
:10D1900005494FF0FF32082841F8202002D3084407
:10D1A00080F848207047000018270020F0B54FF0A5
:10D1B000FF3512B10023082601E008230C260C4C91
:10D1C00005E000BF54F823707F1C04D05B1CB34201
:10D1D000F8D32846F0BD26185DB286F8305044F8E2
:10D1E0002310002AF5D1E11881F84800F1E700008A
:10D1F000182700200249084490F9300070470000C9
:10D20000182700202DE9F0438FB01E46DDF8589016
:10D2100015460F00804602D10020FEF75BFD15B9D0
:10D220000020FEF757FD1C216846FEF75AF900243E
:10D230009DF80000039440F002008DF800000120EA
:10D2400001948DF83600049405940694ADF834806A
:10D250000C9430788DF8300070788DF831009DF89E
:10D260003200142120F00600801C20F019008DF8F7
:10D27000320007A8FEF735F90DA807900CA8089012
:10D280000748ADF82450ADF82640ADF828500B976C
:10D290004B4607AA69460088A2DF0FB0BDE8F083BD
:10D2A000981F00202DE9F0413B48017801EB8101F6
:10D2B00000EB8104D4E9030600EB40013648241D4D
:10D2C000CC3000EB8100B0F808804589476802F057
:10D2D0008CF8B6FBF0F100FB116088B35FF0000042
:10D2E00008FB05776188A288DFF8B08011448D19AA
:10D2F0000022C8F8102040B102F077F86188884217
:10D3000021D0BD4201D1A088E8B1A06802281AD07E
:10D3100002F06BF8A18844463144B1FBF0F200FB07
:10D3200012108008C8F80C0002F05FF8B5FBF0F1AD
:10D3300000FB115078B10020BD4228D068B126E032
:10D34000FFE70120CCE702F050F8B6FBF0F1032034
:10D35000C8F814101CE00120EEE7ADB2BEB202F036
:10D3600044F8B6FBF0F702F040F8B5FBF0F0874266
:10D3700001D1701B09E002F038F8064602F035F8DA
:10D38000B5FBF0F100FB1150301A8008206102203B
:10D39000BDE8F04102F0DABB40260020FC1F00206F
:10D3A0000648017801EB810100EB81000079042837
:10D3B00001D000F059B8012002F0C8BB402600207F
:10D3C0000A480B4A017801EB810100EB8100C1881A
:10D3D00011620079012805D0032801D0042804D166
:10D3E000FFF760BF012002F0B1BB7047402600206C
:10D3F000FC1F002000EB80020548002100EB8200AA
:10D4000001220171C180C0E903214161018170479E
:10D41000402600202DE9F041114D069E6C780A2C23
:10D420001BD02F783C440A2C00D30A3C04EB840424
:10D4300005EB840420716261D1E90001C4E90301B4
:10D44000E38026816878401C68700648007808B937
:10D45000FFF7B6FF0020BDE8F0810420FBE70000E5
:10D4600040260020FC1F002010B50E4C207800EB59
:10D47000800004EB80010020091DFEF73BFC2078B2
:10D48000FFF7B8FF6078401E60702078401CC0B283
:10D4900020700A2801D100202070BDE81040002033
:10D4A00002F054BB402600202DE9F05F2648C168F9
:10D4B000F1B3DFF898B00E688146DBF800400769E9
:10D4C000C078E11B21F07F45ED1CB0B9DFF880800A
:10D4D0004FF48030C8F84403C8F804031120FEF765
:10D4E000D1F81120FEF7D9F84FF0010AC8F800A0D2
:10D4F0002F20FDF78FFF89F803A0B54200D23546F3
:10D50000124BE8193C3320F07F401860DBF8001024
:10D510005A46091B21F07F41001B20F07F40C91CA7
:10D5200081420FD9106818602F20FDF773FF00E0CB
:10D5300004E0BDE8F05F1120FEF7BAB8BDE8F05F87
:10D5400002F0F4B8BDE8F09F34200020041501403B
:10D55000001001402DE9F04117880646B81D144619
:10D560000D46984202D90C20BDE8F081318807228F
:10D5700006290AD34FF4486C4FF6FF73614501D971
:10D58000994202D17088062801D21046ECE7604526
:10D5900001D99842F9D1994203D0984201D08142F1
:10D5A000F3D80520E85520881221401C80B2208045
:10D5B00029542088401C80B220804119308802F014
:10D5C0000DFE2188084480B220804119708802F045
:10D5D00005FE2188084420800020C5E7FEF77ABBBD
:10D5E000F8B5134801F00CF9114D0026114C0C3D13
:10D5F00030B16169B9B101208DF80000684611E0D1
:10D60000287820B1616971B18DF80060F6E768781B
:10D6100058B1A168084800220068FEF7EDFB10B180
:10D62000A16901B188472E70F8BD6168F2E700007A
:10D63000901F0020F8240020F003020070B5094B71
:10D64000044608209E7A00250E4208D0A4F57F40AB
:10D65000FF3802D01889A04202D10020156070BDA9
:10D66000052070BD1026002000EB40020748012174
:10D6700000EB820081724FF6FF710181FF21C172C0
:10D680000021016081808171704700001026002018
:10D6900070B590B00E4605461C216846FDF721FF87
:10D6A00000249DF80000039440F002008DF8000073
:10D6B00001208DF83600019442F65C200494059414
:10D6C0000694ADF834000C94B07A8DF830009DF8D3
:10D6D0003100142120F0FF008DF831009DF8320058
:10D6E00020F00600801C20F019008DF8320007A8F9
:10D6F000FDF7F7FEB0890EA902F075FD0DA907919F
:10D70000ADF824000CA9ADF8280008910EA8ADF8DA
:10D7100026400B90A88805F10E0307AA6946A2DFF0
:10D7200010B070BD7FB5684600F00EF9694611482B
:10D73000FFF708F843F2040448B1082807D0A042D4
:10D7400005D043F20141884201D0FEF7C3FA0A4DE9
:10D75000687800280DD0074801212430FFF7DCF954
:10D7600028B1082803D0A04203D0FEF7B3FA002066
:10D7700068707FBDD0220020001F002030B599B016
:10D780000024054607949DF81C0020F00F00401C63
:10D7900020F0F00010308DF81C0008798DF81D0085
:10D7A0009DF81E001C2120F00600801C8DF81E0034
:10D7B0006846FDF796FE9DF80000039440F01000C7
:10D7C0008DF8000007A8CDE9044001208DF84E0037
:10D7D00042F65B20ADF84C000D949DF834000194A6
:10D7E00020F0FF008DF834009DF83500069420F0FD
:10D7F000FF008DF835009DF83600142120F006005A
:10D80000801C20F0180040F001008DF8360008A8B8
:10D81000FDF767FE13A808900DA809900EAA14A999
:10D82000284600F010F8ADF828001420ADF82C00C0
:10D830000EA8ADF82A400C90A888AB1D08AA69462E
:10D84000A2DF19B030BD2DE9F041804690F82000EC
:10D850000026012714460D46C00710D0287870B165
:10D86000696861700A0AA2700A0CE270090E2171DF
:10D870000126611D288902F0B6FC401DC7B298F848
:10D88000200080070FD5687868B146F00206E119DC
:10D89000688902F0A8FC3844C7B2E119A88902F0EF
:10D8A000A2FC3844C7B226703846BDE8F08170B596
:10D8B00090B00E4605461C216846FDF712FE002476
:10D8C0009DF80000049440F002008DF80000012053
:10D8D0008DF83A000194039442F65D200594069475
:10D8E000ADF838000D9496F825008DF834009DF8B9
:10D8F0003500142120F0FF008DF835009DF836002A
:10D9000020F00600801C20F019008DF8360008A8D1
:10D91000FDF7E7FD316A012011B109788DF83C105F
:10D920000EA90891ADF828000DA9ADF82C000991B9
:10D930000FA8ADF82A400C90A88805F1160308AA94
:10D940006946A2DF10B070BD70B5204A01210546BE
:10D95000116401701E4909681E4C40F63403E160F1
:10D960002289B2FBF3F603FB162222814160811A61
:10D97000890291FBF5F0E1880026084428816E7049
:10D98000154904F1200001F0C4FF00EB40004FF600
:10D99000FF7101EA40004FF47A714843B0FBF1F0A7
:10D9A0006189A388084480B24FF4B471B0FBF1F2EE
:10D9B0001A44A280B0FBF1F201FB120060816E817B
:10D9C000AE81E08800F58060E08070BD00B001406D
:10D9D00040B50140001F00205823002010B5034629
:10D9E0001020107008785070487890704C780320A0
:10D9F000012C0CD10978042909D1002104E05C181C
:10DA0000A47B1454401C491C1C7F8C42F7DC10BDC5
:10DA100010B5134C207900071ED46069401C60616A
:10DA2000E06808B104200AE000F0F8FE08B1022026
:10DA300005E0206960B16068C10704D00320BDE83B
:10DA4000104002F0D3B940F0010060600020F6E71A
:10DA5000BDE81040FFF7A4BCBDE8104002F0BCB91F
:10DA6000FC1F002006494868020707D4820702D538
:10DA700040F001004860022002F0B8B902F0ACB9F1
:10DA8000FC1F00202DE9F04100260125144C22E066
:10DA90006068226900EBC607387805FA00F1114288
:10DAA00017D08A43226101F0EFF902463878E36823
:10DAB00005FA00F1194002FA00F3994209D1797888
:10DAC000012901D0012100E0002151407A6802B112
:10DAD0009047761CF6B220788642D9D3BDE8F08113
:10DAE000202000202DE9FC410E46044681786A463C
:10DAF000254801F0FBFB002829D16078234F00EB7B
:10DB0000400007EB8000807A400622D4022E20D00D
:10DB1000012E20D01E4D1D49A078FC39C0EBC0005D
:10DB200001EB800100231C226846A847A8B1022E01
:10DB30000DD02078154900EB40000C3101EB80003E
:10DB40001449807A51F82020214668469047BDE864
:10DB5000FC81114DDFE7114DDDE7022EF7D0607833
:10DB600000EB400007EB8000817A21F040018172D8
:10DB7000064960783839C0EBC00001EB80011C23F6
:10DB80001A466846A847D4E7F41F00201026002054
:10DB900061FD01000004020059F6010091F5010049
:10DBA0002DE9F04705250F4F90468946064600248B
:10DBB000C4EBC40007EB800036B1072231461030B9
:10DBC000FDF7A1FC18B106E0018B414503D100250A
:10DBD000C9F8004002E0641C072CE9D32846BDE8E0
:10DBE000F0870000142500207CB5054681B26A4606
:10DBF000074801F07BFB040008D15821684601F07A
:10DC00009BFB040002D1284601F00EFB20467CBDA0
:10DC1000F41F002010B5100001D0FEF75BF80020C3
:10DC200010BD00001FB58DF80C0001F0E3FB08B13A
:10DC3000FEF750F803A800F063FA08B1FEF74AF8BF
:10DC40000020CDF805008DF809009DF80500694613
:10DC500020F01E0040F001000C3020F020008DF874
:10DC6000050007208DF8060010208DF807000648F3
:10DC7000009001208DF80400044800F057FB0028B4
:10DC800001D0FEF727F81FBD15DC0100001F0020A2
:10DC90002DE9F04F054693B0FA48FF240E94007822
:10DCA0004FF0000A002858D0DFF8DC83D8F80000D5
:10DCB000002852D001A800F017FA08B1FEF70AF8C0
:10DCC000281D05902A20ADF818000027FF208DF8A8
:10DCD00006008DF804700097EB4C28880C3CBB467E
:10DCE00010280FD0A8886A460221FFF7A7FC48B980
:10DCF000009800EB400104EB8101C97A8DF8061011
:10DD00008DF80500DFF880932888A9F144091321D4
:10DD100009F11C02A2F1E006172875D010DC1028CA
:10DD20001ED011285ED013286FD0142815D100986A
:10DD300000EB400004EB8000C07AFF287DD09AE021
:10DD4000D24B182877D01C2876D0522805D198F8C5
:10DD50000A0053F8201001A8884713B0BDE8F08FDF
:10DD60004FF6FF766A4601213046FFF767FC002830
:10DD7000F3D10099022201EB410004EB8000827292
:10DD800011228DF810208DF80510A9880181D5F891
:10DD90000610016069898180297B8171687DC107D6
:10DDA00008D0B849083101EB50000078FF2808D0AE
:10DDB0000E9006E032460EA9A81DFFF7F1FE0028DE
:10DDC0000FD100990E9801EB410104EB8101C8725B
:10DDD0008A7A42F008028A728DF8060001A8FEF7DE
:10DDE0000FFF6BE1009800EB400004EB8001887AA4
:10DDF00020F002008872010708D500060FD5002127
:10DE000001A8FFF76FFE0AE0B8E043E09DF80600C6
:10DE1000FF2804D001F008FAFF208DF806000099D1
:10DE2000102001EB410104EB8101887212208DF872
:10DE3000100043E101E0F9E03EE1EA890EA900208B
:10DE4000FFF7AEFE78B900990E9801EB410104EBA3
:10DE50008101C8728A7A42F008028A728DF806003F
:10DE600001A8FEF7CDFE009800EB400004EB800017
:10DE7000C07AFF2804D00098C0EBC00109EB810AEA
:10DE800000980023C0EBC00006EB8002A888514632
:10DE900082DF62E700988DF8101000EB400104EB80
:10DEA00081018B7A43F004038B72CB7AFF2B32D043
:10DEB0001621C0EBC0008DF8101002EB8000142179
:10DEC0000830FDF70EFB009800EB400004EB8000EB
:10DED000817A41F0400181720099CDF82CB001EBBC
:10DEE000410204EB820208ABD27ACDF828B0C2EB33
:10DEF000C20206EB8202CDE90C2BC1EBC10209EB99
:10DF00008201CDE9081BA88808F1040200217FDF07
:10DF10000028BED1D2E00DF1380C48F243020020B7
:10DF2000C0EBC00306EB83039B7EFF2B04D0401C99
:10DF30000728F5D31746CFE70A78022A0CD0C0EBA2
:10DF4000C00206EB8202FD2393760B6813618B8877
:10DF500093828979917505E0C0EBC00106EB8101E0
:10DF6000FE228A768CF8000000990E9801EB4101A0
:10DF700004EB81018DF80600C872ADE798F809102E
:10DF800021F0010188F80910DDF800C00CEB4C030A
:10DF900004EB8300817A21F00402827214218DF84F
:10DFA0001010A97921B1C07AFFF71EFEAF7985E084
:10DFB000E979490739D59DF80610FF297ED042F04E
:10DFC00008028272EA7A920707D5C1EBC10206EB1A
:10DFD0008202957E25F001059576C27AFF2A6DD0E2
:10DFE00014F82320022A0ED0C1EBC10106EB8101F7
:10DFF00002680A6182888A8280798875887E20F02A
:10E00000020088760DE0CCEBCC0209EB8200428A5C
:10E01000C1EBC10006EB80000283817E21F001018B
:10E020008176012101A8FFF75DFD47E0A879012174
:10E03000B1EB101F2CD100F00F00012828D100985F
:10E0400000EB400104EB8101897A090720D5C0EB80
:10E05000C00002EB800014210830FDF742FA1620C0
:10E060008DF81000009800EB400004EB8000817AEE
:10E0700041F06001817298F8091041F0020188F8BE
:10E08000091017E0E41F00201C26002020040200D5
:10E09000009800EB400004EB8000817A41F08001A1
:10E0A000817215208DF8100098F80A0053F820109E
:10E0B00001A88847002701E08DF810103A4604A90E
:10E0C00001A8FDF711FE9DF8100012287FF4E1AEC3
:10E0D000009800EB400104EB8101897A01293FF4AB
:10E0E000D8AEFFF7C1FA38E630B1FF2101704170B8
:10E0F0008170C1700020704748F20E007047000028
:10E100002DE9FF4105003AD02B48002404604472F9
:10E1100084722046FFF7A8FA27481C212838FDF70B
:10E12000E0F90026DFF89480FF27304601F07CF804
:10E1300008F80670761C072EF7D35820ADF80400B7
:10E140000720ADF806001E481C49009008316846BB
:10E1500001F0C4F900280FD1184E0120083E30709C
:10E16000287878B1BDF80400BDF80610484381B2A4
:10E1700006F1100001F0E0F804B0BDE8F08148F2CB
:10E180000E00F9E70F4F00250C48A9B202AA08308B
:10E1900001F0ACF848B9C5EBC50007EB80000023DF
:10E1A0001C2202A901F04CF908B13470E4E76D1C9F
:10E1B000072DE9D3E0E700001C260020EC1F00201B
:10E1C000C9E10100142500202DE9F047804654489C
:10E1D00090B01E460068189F92468946002852D08B
:10E1E000582F50D86846FFF77FFF08B1FDF772FD42
:10E1F00000248DF800408DF80440CDE905762546D1
:10E20000A9B20DAA474801F071F828B908220DA952
:10E210004046FDF778F9F0B16D1C072DF0D300BF33
:10E220009DF80200FF282ED0202540230DF1100874
:10E23000B9F1030F12D0DFF8F0C01C22A6EB0C01DD
:10E24000B1FBF2F70121072F2BD2CDF80880BAF1EC
:10E25000000F1BD020E08DF80250E1E7582F02D0CC
:10E260008DF8043001E08DF804509DF8040040F072
:10E27000030000BF8DF80400524601A96846CDF89E
:10E280000880FDF731FD10B0BDE8F087254A8140D8
:10E29000103A52681142F6D001F0AAFF8DF80450EE
:10E2A00033E01F484438371AB7FBF2F73FB11C3050
:10E2B000351AB5FBF2F2CAB18DF80430E3E718491C
:10E2C0008DF804508DF801400C31CDE90A41CDF8AC
:10E2D000088007909DF80200C0EBC0000CEB8000A6
:10E2E000089007A80690182005900EE08DF80140D0
:10E2F0008DF803100A4930220C398DF80420897AF0
:10E30000890702D41C21FDF7ECF89DF80400B9F14F
:10E31000020F02D040F00200ACE740F00100A9E794
:10E320001C260020F41F002014250020164A10B5DA
:10E3300012785AB148F20E0258B151B10B6843B18C
:10E34000124A14683CB148F2040010BD48F20800BB
:10E3500010BD104610BD0D4C1360083CD1F80530BF
:10E36000E3604B7A23740979917223F0050141F03F
:10E3700002011172D17921F0040141F00301D17140
:10E3800000210170084610BDE41F00201C2600205B
:10E390000E4910B54A788C780023A24212D0521C44
:10E3A000D2B24A70022A00D14B70084A4B78183218
:10E3B00052F8232002600869104420F07F40086171
:10E3C000012010BD0360002010BD0000342000209B
:10E3D000002808D0112801D0FDF7A2BC02484168EE
:10E3E00041F0080141607047FC1F002010B51F4C30
:10E3F000204621784068012910D002292DD0032918
:10E4000032D1000725D46069401C606100F006FA33
:10E41000D8B12078BDE8104001F098BB000718D4AF
:10E420001348A28B017801EB810100EB8100C188C8
:10E43000891A0904090CC18003D0BDE8104001F01D
:10E4400091BCBDE81040FFF70FB8BDE81040FEF7E3
:10E45000A7BFBDE8104000F0BDBB0648617850F88A
:10E460002100BDE81040004710BD0000FC1F002047
:10E47000402600204404020028DFFFF7A9BF29DF5F
:10E48000FFF7A6BF0EB516A19DF8080020F00F00FB
:10E49000401C20F0F00010308DF80800072202A880
:10E4A0007CDF08B1FDF716FC40F2854078DF08B14B
:10E4B000FDF710FC00204FF4C87100900190ADF8FA
:10E4C0000400ADF800104A00ADF80220ADF80610C7
:10E4D00068467ADF002801D0FDF7FCFB0EBD000086
:10E4E000436164656E6365000020704700207047DB
:10E4F000002070472DE9F0474178DFF8A4900546E9
:10E50000C1EBC10209EB8200002401EB410109F1DA
:10E510001C0A4368274626460AEB810163B191F83D
:10E520000AC05FEA0C6807D55FEA4C6C04D459F85E
:10E53000226000F108049FB20889D04633463A466B
:10E540002146A9DF48F241090B281CD000B14846FA
:10E55000012E16D168784FF6FF7200EB400008EBF1
:10E5600080000C210089A7DF00280AD0A0F54051C7
:10E57000023913D0082811D0891E0FD011280DD0D0
:10E580000020BDE8F0876878012300EB400008EB2D
:10E5900080003A4600892146A9DFDBE74846F0E7DC
:10E5A000F425002070B50C46014660780A4DC0EB9A
:10E5B000C00005EB800038231C2200F041FF00283A
:10E5C00008D16178C1EBC10105EB81014A68521C99
:10E5D00000D14A6070BD0000F42500202DE9F04113
:10E5E00086B0804603271420ADF8140048782A4EE0
:10E5F00000EB400006EB80000D4600893B4605AA73
:10E600006946AADF28BB6878A6F11C04C0EBC000ED
:10E6100004EB8000BDF8142069460830FCF773FF56
:10E620000028687807D0C0EBC00004EB800149687F
:10E6300081B11A4E0FE000EB400106EB8101897AAF
:10E64000890724D4C0EBC00004EB80001C21FCF738
:10E6500048FF1CE0124E44F820706878BDF8142082
:10E66000C0EBC00004EB8000694642606878C0EBF4
:10E67000C00004EB80000830FCF71AFF68783823EC
:10E68000C0EBC00004EB80011C224046B04706B03E
:10E690000020BDE8F08100001026002059F601009E
:10E6A00091F50100FFF726BFFFF77CBFFFF796BF8C
:10E6B0000C21800000F1A040C0F800177047000056
:10E6C0002DE9F041124E07460125BD403068FDF7A7
:10E6D000D3FB00280DD10F4C2069284207D13846C2
:10E6E00000F0D2FB0028E06805D0284304E0A843EE
:10E6F0002061BDE8F081A843E060206928432061E3
:10E70000A1683068BDE8F0410022FDF775BB00004C
:10E71000580402002020002070B51B4C207900070F
:10E720002DD41A48017801EB810100EB81052E6997
:10E7300000F05BFEE9882A89761E11443144B1FB62
:10E74000F0F02169002549B16169814206D1E56097
:10E75000606840F001006060002008E000F05EF8B2
:10E7600010B10220E56002E0206920B10320BDE87D
:10E77000704001F03BBBBDE87040FEF711BEBDE844
:10E78000704001F029BB0000FC1F00204026002043
:10E79000F8B51A4C207800282ED0206928B1002620
:10E7A000E06820B1002526B110E00126F8E7012538
:10E7B000F9E7684652DF052803D020B1FDF78AFA51
:10E7C00004E0012602E021690098884785B9608845
:10E7D000ADF800006946A06861DF052803D020B1CC
:10E7E000FDF778FA04E0012502E0D4E90201884748
:10E7F000002EDED0002DD6D0F8BD00005420002021
:10E80000054940880A88904204D34988884201D843
:10E810000120704700207047881F002070B50E4807
:10E82000017801EB810100EB8104256900F0DDFD39
:10E83000E18822896D1E11442944B1FBF0F107489B
:10E8400042698A4205D301D1006910B14FF000003E
:10E8500070BD4FF0010070BD40260020FC1F00205D
:10E86000800701D0002070470120704730B5148820
:10E87000E51C9D4201D90C2030BD02250D551388A1
:10E880001C245B1C9BB21380CC5413885B1C9BB272
:10E890001380012807D0022807D0032807D00428B6
:10E8A00007D0072030BD002004E0012002E0CD5455
:10E8B00001E00320C8541088401C1080002030BDA7
:10E8C0000348017AC90702D00078FEF72DBB7047D4
:10E8D000401F00202DE9F047DFF8ACA0DAF80C006B
:10E8E0009AF8004080469AF80460DAF80890DAF85E
:10E8F00010703AE009EBC4052A7833E002EB4201DC
:10E900006B68521C03EBC101AB78D2B2934200D1C9
:10E9100000220B78022B02D0032B23D11FE0D1F869
:10E9200004C00346014603E0614503D00B46C969B4
:10E93000C1B1F9E7B1B18B4205D1C06918B9134F24
:10E940000126BE600027D1F800C0C969D96149B16C
:10E950000B6863440B6005E00174C06900E00021AE
:10E960000028F9D169789142C8D1641EE4B2C1D2BD
:10E97000CAE903078AF80460404502D00120BDE8D7
:10E98000F0870020FBE70000342000200010014049
:10E990002DE9F04705462F48002680460778D0F835
:10E9A0000C904BE0D8F8080000EBC70440E002D020
:10E9B0002846ED691EE02078616800EB4002401CAB
:10E9C000C0B201EBC2012070A278904200D1267043
:10E9D0000A784868012A2DD1027C5ABB8A684260B5
:10E9E000CA6882600A69C2604969816198F8041046
:10E9F00001B146604268D8F81030DFF85CC0D11A27
:10EA000021F07F41614502D28268114406E0991AE3
:10EA1000826821F07F418A4202D9511A016000E0E8
:10EA200006604660012186600174C66101F062FAE9
:10EA3000002DBCD1207861788842BCD17F1EFFB206
:10EA4000B0D2D8F80C10494502D00120BDE8F087BB
:10EA50000020FBE734200020FFFF7F00002398B058
:10EA6000524A05211846FDF77FF908B1FDF732F942
:10EA70004F4A01214F48FDF765F908B1FDF72AF922
:10EA80004C484D4A0121001DFDF75CF908B1FDF726
:10EA900021F94A4A40F6CD410320FEF7F3F908B1C7
:10EAA000FDF718F969460020FEF7CEF808B1FDF72A
:10EAB00011F99DF80000022875D00024FEF76AF8CD
:10EAC0002046FFF7AFF8FFF7DDFC382101A8FCF77F
:10EAD00008FD02208DF8040001248DF80640062070
:10EAE0008DF80700364803250690ADF81450242110
:10EAF0000FA8FCF7F6FC8DF848402820002413905E
:10EB0000B420009414902F4B0FAA214601A8FDF7C2
:10EB1000D7FA08B1FDF7DEF800F04CFF00F0A0FED8
:10EB20001C216846FCF7DDFC4FF42030CDE90040A5
:10EB30004FF47020029024488DF80C504089ADF8B5
:10EB40000E0022480590224806908DF81040684635
:10EB5000FDF73AFD08B1FDF7BDF8102000F0BCFD4F
:10EB6000144C00224FF480312068FDF745F908B1BC
:10EB7000FDF7B0F84FF4004100226068FDF73CF962
:10EB800008B1FDF7A7F80320FDF7A6FB08B1FDF7D4
:10EB9000A1F8102000F0A0FD48DF0028FCD0FDF710
:10EBA00099F8F9E7FFE7012488E70000A820002092
:10EBB00019C00100AC03020025D70100EDCD010012
:10EBC000321F002089EF0100D022002029F001002F
:10EBD000DDD501000348416821F00801416000785B
:10EBE00000F0B4BFFC1F002070B5144682880E46AA
:10EBF00005462088111D0144921C994201D8FE2A25
:10EC000001D90C2070BD521C32542088FF21401CB9
:10EC100080B2208031542088401C80B2208081192D
:10EC2000288801F0DBFA2188084480B22080AA8875
:10EC300042B1A96841B13044FCF73AFC2088A98868
:10EC400008442080002070BD072070BDF8B50E4636
:10EC5000017814460546012901D1687830B1208831
:10EC6000821C9A422DD8012902D006E00720F8BD67
:10EC700069780144891C994223D8181A801E87B2EA
:10EC8000ADF800702188B01C084469467DDF00287B
:10EC9000EDD12878022805D1BDF80010B94201D87D
:10ECA00009210AE00821012805D16878B84202D874
:10ECB000ADF8000001E0ADF80070BDF80000FE28DE
:10ECC00001D90C20F8BD2288401CB0542088401C7B
:10ECD00080B2208031542088401C2080BDF8001074
:10ECE000084420800020F8BD0020704700207047B5
:10ECF000002070474907090E002806DA00F00F02CD
:10ED000002F1E02282F8141D03E000F1E02282F813
:10ED1000001400F01F02012191404009800000F121
:10ED2000E020C0F88012C0F8001170472DE9F047CC
:10ED30008846814600F096FA0124224E0028484673
:10ED400018D0FEF757FA304490F84800800903289D
:10ED500002D0012806D007E01B48006804FA09F435
:10ED6000204201D1022100E003214846BDE8F047DE
:10ED700000F0D9B800F082FA002820D04846FEF70B
:10ED800039FA0546114F4FF4807007EB850100EB0F
:10ED90008500D1F8102580B242F00102C1F810259B
:10EDA00000F0D0F8B8F1000F09D04846FEF722FA7B
:10EDB00056F82000002802D0AC40C7F80443BDE854
:10EDC000F087000018270020100500500060004068
:10EDD0002DE9FC41DFF8A480044608EB040000277D
:10EDE00090F930001346C0170E46401C01D008278A
:10EDF00040E0F27819462046FEF7D8F90546401C57
:10EE000037D0B07848B1A00000F1A040D0F800178A
:10EE100021F00201C0F8001707E0002173782046B6
:10EE200000910A46019100F06DF8F078C0B11448E5
:10EE3000317800EB8500D0F81025124B1A40C0F84D
:10EE400010254FF4F8524FF4403302EA042203EA4B
:10EE500001410A43D0F810150A43C0F8102509E013
:10EE600008EB0500327810F8481F41EA8211017062
:10EE700000E004273846BDE8FC8100001827002088
:10EE800000600040FFE0FCFF03490968C14011F049
:10EE9000010000D0012070471005005070B5124DE0
:10EEA00095F8540008B1082070BD0020411E2A18B2
:10EEB000401CC0B282F830102028F8D3002420462D
:10EEC000FEF766F9641CE4B20C2CF8D3032106208B
:10EED000FFF710FF05494FF00040C1F8040301207F
:10EEE00085F85400002070BD182700200060004005
:10EEF000034890F85400002800D00120704700001B
:10EF00001827002030B541EA4201DDE9034541EA16
:10EF10008301800041EA042100F1A04041EA05415B
:10EF2000C0F8001730BD800000F5E06000F1A0409F
:10EF3000026822F440320260026842EA0141016044
:10EF400070470000034908B50844002101600068CB
:10EF5000009008BD0060004002494058012800D0E0
:10EF600000207047006000404058002800D0012079
:10EF70007047D0F80403084000D001207047405883
:10EF8000002800D00120704710B550B103280CD1E3
:10EF90000220FDF76BFF002807D0BDE81040FCF70A
:10EFA00099BEBDE8104000F0BDBD10BD7FB51D4D40
:10EFB000044600886A88102826D005DC022822D161
:10EFC0000021104667DF1AE0112825D051281AD1F8
:10EFD000A179002917D0A07A042803D0062801D0EF
:10EFE000052810D102291BD05FF001008DF8000028
:10EFF0004FF4C170ADF8040069461046A8DF002840
:10F0000001D0FCF767FE7FBD0720FDF72FFF08B199
:10F01000FCF760FEA08801E04FF6FF7068807FBDBE
:10F020000220E3E7001F00200078002807D10448F1
:10F030003B21408876DF002801D0FCF74BBE7047AB
:10F04000001F00202DE9F04F8B46714993B04FF01F
:10F05000000AD1E901960F68ADF828A04FF0020828
:10F06000ADF82AA00446CDF83CA0CDF82CA0ADF810
:10F0700024A00125ADF83C8011A88DF820808DF8E2
:10F080002650ADF83EA010902189A0890FAAA5DFD7
:10F0900010B1A16A01B188479DF84400C0F3400057
:10F0A00068B394F8260020B14FF4C070ADF8240086
:10F0B00001E0ADF824A0A08908A9A8DF10B1A16AD9
:10F0C00001B18847BDF8240000287AD184F8268051
:10F0D0008DF80D809BF818100BF11A0011F0FF0F3E
:10F0E0000AD0017861F3070701290FD0022913D054
:10F0F000032907D004290FD08DF80C7075E040F279
:10F100008110D3E7407860F3070605E00279D0F874
:10F11000010062F31F60814652468DF80C100129F0
:10F1200040D002294ED0032907D004295DD1207890
:10F13000C0075AD08DF80D5057E02078C00754D042
:10F14000F1B20020237F1DE02718BF7B8F4218D12A
:10F150000E928DF80D50ADF8385001A88DF804606E
:10F16000ADF83A200F908DF830208DF83460226A87
:10F1700062B10CA9204690478DF80D00012805D0FA
:10F1800033E0401C8342DFDC032008E0A18CA0892F
:10F190000EAAA4DF48B3A16A01B1884704208DF804
:10F1A0000D0022E0207880071FD58DF80D508DF8D6
:10F1B0003050CDF83490226ABAB10CA9204690475D
:10F1C000EDE721E0207840070FD584F826508DF830
:10F1D0003080226A4AB10CA9204690478DF80D0074
:10F1E000C0B2012801D084F8268004F12E0203A9C0
:10F1F0002046FEF7F3FB84F82D0094F82600022841
:10F2000002D1204600F0E8FA13B0BDE8F08F00000C
:10F21000F40302000021425C0AB101207047491C3E
:10F220000629F8D30020704770B50546C0EBC5012C
:10F230000B4800EB81040020C4F81100A4F815006D
:10F2400020461021FCF74DF9FF202074A0764FF6E0
:10F25000FF7020832846BDE8704000F0C9BF000061
:10F26000142500200449084490F93000082801DBE7
:10F2700001207047002070471827002004490844E7
:10F2800090F93000082801D2012070470020704713
:10F290001827002070B50D00044602D10020FCF7AD
:10F2A00019FD14B90020FCF715FD28782070698835
:10F2B0006170090AA170A988E170090A2171E888C2
:10F2C0006071000AA07170BD06490979490701D42F
:10F2D0000820704720B10449497801600020704738
:10F2E0000E207047FC1F00204026002030B5104B38
:10F2F0001B795B0701D4082030BD18B112B1046836
:10F300007CB901E00E2030BD0A4B1D684DB140684C
:10F310001D8901FB050059685B8903FB05118142CA
:10F3200001D8072030BDC2E90040002030BD0000F8
:10F33000FC1F00200C270020F8B5054621480E468A
:10F340000079400701D40820F8BD15B1286870BBCA
:10F3500001E00E20F8BD1C4C0027206838B36189FD
:10F360002289606801FB0201686881421FD9FFF7AA
:10F3700077FA70B1D5E9000200EB400004EB8000A1
:10F3800043680189D41AB4FBF1FC01FB1C4474B935
:10F3900001E01020F8BDB6FBF1F401FB146434B9B0
:10F3A0002EB14089324400FB0130824201D907204E
:10F3B000F8BD33460022294603200097FEF72AF8BD
:10F3C000F8BD0000FC1F00200C27002010B54FF0F6
:10F3D00010204469601C04D000F007F8B4FBF0F082
:10F3E00010BD4FF08050406910BD4FF08050006953
:10F3F00080B2704770B510480024254604704470F0
:10F400002846FDF7F7FF6D1C0A2DF9D30B4D6C80D4
:10F41000FFF7DCFF861EFFF7E8FF46430648AE60B5
:10F42000CC306C610460048144812C70AC61042098
:10F43000EC616860002070BD40260020FC1F0020A9
:10F440002DE9F843804623481F46164600790D46AD
:10F45000400702D40820BDE8F8832DB1B8F1000FB1
:10F4600002D0286898B901E00E20F4E71A4C206811
:10F4700068B162892089616802FB00116A68914263
:10F4800005D926B1B04202D3F119814201D9072032
:10F49000E1E74046FFF7E4F9D0B13846FFF7E0F97D
:10F4A000B0B16868FFF7DCF990B168683246C119FD
:10F4B0004046FBF7FDFF00962868002200EB400065
:10F4C000434654F8204002212846A0470020C2E7C6
:10F4D0001020C0E7FC1F00200C2700202DE9F04180
:10F4E000294D04460E462879400702D40820BDE87D
:10F4F000F081ECB1E6B12068D0B1FFF776FF0146AC
:10F50000A088814212D3102810D3E08870B1FFF791
:10F510005DFF471EFFF769FF4743E288A188A8689F
:10F5200002FB0102974201D3890703D00720DEE7DF
:10F530000E20DCE76988012924D0C6E90010134AAF
:10F5400001EB410302EB83014860206842F823008D
:10F55000A0880881E0884881FFF747FFA188E288FA
:10F56000401E01FB0204FFF740FF94FBF0F4FFF79D
:10F570003CFFA96804FB0010A8606888401C6880F4
:10F580000020B4E70420B2E7FC1F00200C27002075
:10F59000F8B504461C481E46154600790F4640073C
:10F5A00001D40820F8BD1FB114B1206898B901E05A
:10F5B0000E20F8BD1548016869B14289416800898B
:10F5C00002FB00116268914205D925B1A84202D31D
:10F5D000A919814201D90720F8BD3846FFF740F943
:10F5E00078B13046FFF73CF958B16068FFF738F959
:10F5F00038B12B463A46214601200096FDF70AFF16
:10F60000F8BD1020F8BD0000FC1F00200C270020D2
:10F6100010490246087800281AD0042818D0022A77
:10F6200014D0032A14D10A7912070FD48A69521C04
:10F630008A61B2F57A7F06D0022801D000F086BA3E
:10F64000487800F0D3BB0D20FCF76ABBFEF7CEBEB6
:10F6500070470000FC1F0020F8B504461C481E46F9
:10F66000154600790F46400701D40820F8BD1FB1A8
:10F6700014B1206898B901E00E20F8BD1548016862
:10F6800069B142894168008902FB001162689142B8
:10F6900005D925B1A84202D3A919814201D9072071
:10F6A000F8BD3846FFF7DCF878B13046FFF7D8F8F8
:10F6B00058B16068FFF7D4F838B12B463A46214676
:10F6C00004200096FDF7A6FEF8BD1020F8BD00004E
:10F6D000FC1F00200C27002010B50446C0B2FEF726
:10F6E000E7FF01210C4A01EB042040F48030106058
:10F6F0000A480160094A0020121D10600848C160D4
:10F700000160094A0748106005480830121D106062
:10F7100005480C38016010BD1065004004B501407B
:10F7200000B001400061004010F5014070B50126B5
:10F7300070044FF0E0210025C1F88001084C401012
:10F74000C4F84803C4F8080366602F20FBF762FE84
:10F75000A660044C2F202561FBF75CFEE57070BDB0
:10F76000001001403420002009480A490022C37DCE
:10F77000C1F8082143B1D1F81815437EC268D154AD
:10F78000417E491C41767047D1F81805704700004A
:10F7900070270020002000401FB501228DF80800CE
:10F7A00004488DF800200191D0E900126846904786
:10F7B0001FBD0000702700200A780648012A02D0E9
:10F7C000022A05D102E04968C16001E001214170CF
:10F7D00001207047001F002070B5044690F82600F5
:10F7E00086B002282BD194F82D000025ADF800003A
:10F7F0000195029503950495A088ADF804000226B2
:10F8000004F12E008DF80660ADF80850CDF80CD04C
:10F810000490A08901A9A6DF20B1A0F540510439C8
:10F8200007D112E094F82D00BDF80010884208D0EE
:10F830000C2084F82650A16A002900D0884706B021
:10F8400070BD032084F82600F9E784F82660F6E707
:10F8500008B502490020009108BD0000001F0020EB
:10F8600010B516485121012401606421C0E901143A
:10F8700004730146124800F041F810480A21103084
:10F8800001602821C0E901140024047301460C48DA
:10F89000083000F033F809481421203001606E214F
:10F8A000416003218160047301460548103000F077
:10F8B00025F803481038C460447010BD3823002078
:10F8C000101F002010B503680A6889689C1A8C42D2
:10F8D00002D9591A016010BD01210260017110BDE9
:10F8E00010B54B68026889689C1A8C4202D9114491
:10F8F000016010BD00210360017110BD0A7B1AB1C7
:10F9000049680160002102E009680160012101717C
:10F91000704710B5044600790028204602D0FFF752
:10F92000DFFF01E0FFF7CEFF206810BD2DE9F041B9
:10F930000746806A14468846C8B3002531E000BFF8
:10F94000B96A05EB450001EB8006B088801CFE28F3
:10F9500002D90C20BDE8F0812288401C08F8020082
:10F9600020881622401C80B2208008F800202088C1
:10F97000401C80B2208000EB0801308800F02EFC93
:10F980002188084480B22080B28842B1B16871B148
:10F990004044FBF78DFD2088B188084420806D1C11
:10F9A000EDB297F82C00A842CAD80020D2E7FFE7B2
:10F9B0000720CFE710B5A0B028216846FBF791FDDE
:10F9C0009DF80410072021F00F01491C21F0F001DF
:10F9D00010318DF804109DF80A10ADF80C0021F0DC
:10F9E0000F01491C21F0F00110318DF80A109DF82B
:10F9F00009108DF80E0021F00F01491C21F0F001D3
:10FA000010318DF809109DF80710404821F00F01C2
:10FA10000024491C0490009421F0F0013C4810316E
:10FA200005908DF807100A208DF8180004208DF835
:10FA30007C001FA808909DF82500694620F00F0063
:10FA4000401C20F0F00010308DF825003148FCF704
:10FA50002DFE08B1FCF73EF914210AA8FBF741FD81
:10FA60009DF835000A9420F00F00401C20F0F000B3
:10FA700010308DF835009DF836000C9420F00F0002
:10FA8000401C20F0F00010308DF836009DF8370053
:10FA90000AA920F0FF008DF837009DF8380020F00B
:10FAA0000F00401C20F0F00010308DF838000120CD
:10FAB0008DF82C0064208DF8340016481838FCF7B7
:10FAC00034FD08B1FCF706F940210FA8FBF709FD4A
:10FAD00011A10FA8FDF74EF89DF8780020F00F0057
:10FAE000401C20F0F00010308DF878009DF879006F
:10FAF00020F0FF008DF879000FA8FCF7ABFE00287E
:10FB000001D0FCF7E7F820B010BD0000B9F7010004
:10FB1000281F0020D0220020536D61727442696B4F
:10FB20006500000010B50020FDF7A0F908B1FCF752
:10FB3000D1F8FDF7E7F808B1FCF7CCF83CDF002876
:10FB400003D0BDE81040FCF7C5B810BD0C490870E3
:10FB500040B101280FD002280FD003280FD14869E7
:10FB6000FEF78ABC00208861C861064840780028FA
:10FB700005D0FDF725BC00F0F5B800F051B870478E
:10FB8000FC1F00204026002018B10349C860002057
:10FB900070470E2070470000542000201CB5034918
:10FBA00001910091694660DF1CBD0000001F00202C
:10FBB00070B50E460546144614211046FBF791FC1D
:10FBC000012020800021216121732672657205B118
:10FBD000A072002070BDFCF76BB8000070B509B1D1
:10FBE0008C0701D0072070BD064C0125A160628002
:10FBF0000549636010DF0028F5D1257016202EDF3F
:10FC000070BD000054200020D7FB010018B103494B
:10FC10000861002070470E2070470000542000202B
:10FC20002DE9F041164C606820F001006060154835
:10FC3000017801EB810100EB81063569FFF7D5FB07
:10FC4000B5FBF0F76761FFF7D0FBF1886D1E294423
:10FC5000B1FBF0F08742606802D140F0020001E0A1
:10FC600020F0020060602079E16800F002000843A3
:10FC700004D00020BDE8F04100F0B8B80220F9E758
:10FC8000FC1F00204026002001484069FEF7F4BB1D
:10FC9000FC1F002010B5FFF799FB441EFFF7A5FBE2
:10FCA0004443FFF7A2FB05494A69521E5043CA6804
:10FCB0002146BDE81040FEF7E2BB0000FC1F00201B
:10FCC0002DE9F0411048017801EB810100EB81043E
:10FCD0002569FFF78AFBE188228911442944B1FB99
:10FCE000F0F200FB1216FFF771FB471EFFF77DFBDA
:10FCF00007FB0061E08822891044044A2844126905
:10FD0000BDE8F041FEF7BBBB40260020FC1F0020F1
:10FD100010B5FFF75BFB441EFFF767FB4443FFF79B
:10FD200064FBB4FBF0F0BDE81040FEF7A5BB00009B
:10FD300070B5FFF75AFB8608FFF757FB074949697B
:10FD400000FB01F4FFF742FB451EFFF74EFB684343
:10FD500032462146BDE87040FEF791BBFC1F0020F3
:10FD60000020704770B51448017801EB810100EB69
:10FD70008104241DFFF739FB6188104E884211D29F
:10FD8000FFF733FB61880D1AFFF72FFB8208A1886C
:10FD9000E0680844216928442944FEF770FBFFF716
:10FDA00024FB07E0A288E06810448A082169FEF776
:10FDB00066FB6088F06170BD40260020FC1F0020BB
:10FDC00004480079000702D4012000F00FB800F0C9
:10FDD00003B80000FC1F00200348416821F008011F
:10FDE0004160407800F002B8FC1F002002494870D2
:10FDF000024951F820000047FC1F00203004020097
:10FE000010B50446FFF704FC2046BDE81040FCF79F
:10FE100025BA70B50C00054602D10020FBF75AFF49
:10FE200015B90020FBF756FF207828702088000ABB
:10FE300068702068000CA8702068000EE8702079B7
:10FE40002871207A68712089000AA871A068000CC6
:10FE5000E87170BD03480079000701D4FDF7A0BA2E
:10FE6000FFF7BABFFC1F00202DE9F84F204C0025FA
:10FE70006846D4E903B6FEF78BFA8046FEF72AFD02
:10FE80000746A946B8F1000F25D00023009ACC46BA
:10FE9000E06819E007680146974202D9BA1A026081
:10FEA00014E0C1F800C0D1F80C80D21BC8693B44F3
:10FEB0008A46B8F1000F07D0F71827F07F47C1E94D
:10FEC0000178CAF81C500D460028E3D1E0602846AE
:10FED000FEF75EFD04E02846FEF75AFD00B917B1B3
:10FEE0005846FDF7E1FA84F80490BDE8F88F000069
:10FEF000342000200D4B10B5D96831B102680C6870
:10FF0000A24204D8A21A0A60C161D86010BD0B4693
:10FF100003E00B46C969121B21B10C689442F8D367
:10FF2000A41A0C600260C161D86110BD34200020A9
:10FF30002DE9F0411D4DEC68002C35D01C48002700
:10FF400000682969B846401A20F07F462068B04210
:10FF500015D82246361A0744E469107C68B182F845
:10FF600010806B6933B1D2E90501984728B1FBF7DE
:10FF7000B1FE02E0D2E905108847002CE6D169788D
:10FF8000A878814206D1401CC0B2A870022801D1D5
:10FF900085F802800548A978183040F82170BDE83E
:10FFA000F0411420FBF784BBBDE8F0813420002031
:10FFB00004150140064A0020C2F81C010548838A46
:10FFC0008168C95C838A5B1C8382C2F81C157047F8
:10FFD00000200040702700201FB500218DF8080088
:10FFE00005488DF80010826801928175D0E90012F1
:10FFF000684690471FBD0000702700202DE9FF4193
:020000040002F8
:100000003E4D4FF400712846FEF7B3FF01273C4CEC
:100010004FF40178002600B34FF492712846FEF7A2
:10002000A3FFD0B1C5F82461C5F80883A07E00B94C
:100030006F6002208DF80000D5F88004C5F88004B8
:100040000390E07D8DF80800E0680190E675267663
:10005000D4E900126846904724E004212846FEF7C0
:1000600088FFF8B14FF484712846FEF77DFFC8B1D0
:10007000FFF77AFBE07D617E884213D1227E3AB1A0
:10008000607EE168E2752269E2602676667607E0C6
:10009000A07E00B96F60C5F80883E675607EE168F0
:1000A000FFF77AFB4FF48E712846FEF75DFF58B1DB
:1000B000A18AA07D814202D2FFF77CFF04E0C5F84F
:1000C0001C6108B1FFF788FF4FF4A2712846FEF7C4
:1000D0004BFF00280FD0C5F84461A07E00B12F600F
:1000E000E07D002807D0E675607EE16804B0BDE8D9
:1000F000F041FFF751BBBDE8FF8100000020004048
:10010000702700207FB5334C4FF492712046FEF7E4
:1001100036FF314D0026B0B1C4F8246102208DF8BD
:100120000000D4F88004C4F880040390D4F83C059F
:100130008DF80800E8680190EE752E76D5E900127A
:10014000684690471FE04FF488712046FEF717FF7E
:10015000C8B1C4F81061D4F83C05E97DC0B2814251
:1001600011D12A7E5AB1E968D4F8003223F0200375
:10017000C4F80032EA752A69EA602E7601E0EE756D
:10018000E968FFF709FB4FF4A2712046FEF7F7FE7E
:1001900050B1C4F84461E87D30B1EE75D4F83C0547
:1001A000E968C0B2FFF7F8FA4FF490712046FEF705
:1001B000E6FE00280CD0C4F82061A87D002807D0F6
:1001C000D4F84C0504B0C0B2BDE87040FFF704BFDE
:1001D0007FBD000000200040702700200870000A4A
:1001E0004870022070470870000A4870022070476B
:1001F00001218140024842688A4342607047000002
:10020000E41F002038B515494888A0F57F42FF3A21
:1002100023D04A78124C521CD2B24A70237B9342AC
:100220000AD3091D75DF002817D0A169002914D051
:1002300001B0BDE83040084700254D70217C29B150
:100240003B2176DF10B1A16901B1884761690029BE
:1002500003D08DF800506846884738BD841F0020C1
:10026000F82400200F480068C005C00D13D01038D6
:1002700040B2002806DA00F00F0000F1E02090F80C
:10028000140D03E000F1E02090F80004400901287B
:1002900003D0032803D002207047002070470120BC
:1002A0007047000004ED00E042788378521CD2B21F
:1002B000934200D100220378934201D1002070477D
:1002C0000A704168407800EB400001EBC0007047C5
:1002D0002DE9FC411646DDE90854CDE900541F46DE
:1002E0008046022200F00CF8002807D1CDE9005426
:1002F0003B4610223146404600F002F8BDE8FC8142
:100300002DE9FC5F0026DDE90C4B994692468E46AE
:1003100080462788354630E0D8F80400002200EBFC
:10032000850069460068019001A865DF002830D18A
:100330009DF8000050451FD10EB1002100E00221C0
:10034000228808441118594522D846B9521C90B247
:10035000208009F800E02088401C208001262188A8
:1003600001A801EB0902694665DF002811D1208848
:100370009DF80010084420806D1CB8F80000A842C9
:10038000CADC56B12088C01B401E80B2FF2802D9AB
:100390000C20BDE8FC9F09F807000020F9E701796F
:1003A00011B9007B002800D0012070476820002090
:1003B000882000206823002088230020B423002008
:1003C0000D0000000E0000000F00000010000000F3
:1003D0000D00030019CD01000E00030019CD01002E
:1003E0000F00030019CD01001000030019CD01001A
:1003F000D8240020100000000000000000000000D1
:10040000F1EC0100DDE50100F1E40100ADE60100E1
:10041000EDEC0100A5E50100EDE40100A9E6010015
:10042000E9EC0100F5E40100E9E40100A5E60100C2
:1004300011FD010031FD010089FC0100C1FC01003A
:1004400095FC0100C1FD010065DA010011DA01002F
:1004500055FE010019E7010090270020030000006D
:1004600080040200001F00206801000044B5010064
:10047000A40402006820002048270000B4B901004D
:10048000310325FFFF2E0405060708090A0B0C0D92
:1004900016180108250F1801000A18019490D003BE
:0404A00003FBFFFF5C
:040000050001B40141
:00000001FF
